:020000040800F2
:10000000A00A002089010008A11400087D12000840
:100010009D140008A50B00089F2B0008000000009D
:10002000000000000000000000000000E9210008BE
:10003000490D00080000000049190008D1220008FD
:10004000A3010008A3010008A3010008A301000800
:10005000A3010008A3010008A30100083D0F000848
:10006000A3010008A3010008A3010008A3010008E0
:10007000A3010008A3010008A3010008A3010008D0
:10008000A3010008A3010008A3010008A3010008C0
:10009000A3010008A3010008A3010008850F0008C0
:1000A000A3010008A3010008A3010008A3010008A0
:1000B000A301000835230008A3010008A3010008DC
:1000C000A3010008A3010008A3010008A301000880
:1000D000A3010008D5280008A3010008A301000817
:1000E000210F0008A3010008A301000800F002F896
:1000F00000F03AF80AA090E8000C82448344AAF188
:100100000107DA4501D100F02FF8AFF2090EBAE885
:100110000F0013F0010F18BFFB1A43F0010318473B
:100120001846000038460000103A24BF78C878C14D
:10013000FAD8520724BF30C830C144BF04680C60ED
:10014000704700000023002400250026103A28BF35
:1001500078C1FBD8520728BF30C148BF0B60704739
:100160001FB51FBD10B510BD00F044F81146FFF7D4
:10017000F7FF03F041F800F062F803B4FFF7F2FF75
:1001800003BC00F063F800000948804709480047B5
:10019000FEE7FEE7FEE7FEE7FEE7FEE7FEE7FEE737
:1001A000FEE7FEE704480549054A064B7047000094
:1001B000D5220008ED000008A0040020A00A0020BD
:1001C000A0060020A006002070477047704710B5B9
:1001D00000F008F8006810BD10B5044600F002F801
:1001E000046010BD0048704740040020004870477C
:1001F000400400207546FFF7F9FFAE46050069464A
:10020000534620F00700854618B020B5FFF7CAFF17
:10021000BDE820404FF000064FF000074FF0000807
:100220004FF0000B21F00701AC46ACE8C009ACE888
:10023000C009ACE8C009ACE8C0098D467047044667
:10024000AFF300802046FFF798FF00000149182017
:10025000ABBEFEE7260002007047000008B5012192
:10026000084601F0A9FB012140F2052001F0D4FB72
:100270004FF4004001F094FBFF20ADF80000012096
:100280008DF8020000208DF803006946014800F057
:1002900023FF08BD0008014010B5FFF7DFFF00F0A5
:1002A00011F802A001F070FB10BD00000D414443A5
:1002B0005F496E69745F737563636565642E2E2E86
:1002C0000A00000000B591B0504800F079FC504899
:1002D00006905048079000200890092009900020BF
:1002E0000A9080200B9040000C9080000D90202000
:1002F0000E9000020F900020109006A9434800F0D5
:1003000005FD0121414800F04FFC41484C3800F008
:1003100099F8012000F072F90020019001208DF879
:1003200008008DF809004FF460200390002004902D
:1003300009208DF8140001A935484C3800F0C4F8A4
:1003400006230122002132484C3800F0E5F806234C
:10035000022201212E484C3800F0DEF80623032249
:1003600002212B484C3800F0D7F807230422032140
:1003700027484C3800F0D0F80623052204212448F1
:100380004C3800F0C9F806231A46052120484C389D
:1003900000F0C2F80623072219461D484C3800F029
:1003A000BBF806230822072119484C3800F0B4F89E
:1003B00007230922112116484C3800F0ADF801211D
:1003C00013484C3800F033F8012111484C3800F044
:1003D00023F80F484C3800F0FBF800BF0C484C38AD
:1003E00000F068F80028F9D109484C3800F000F90D
:1003F00000BF07484C3800F053F80028F9D101211C
:1004000003484C3800F0E9F811B000BD0800024084
:100410004C240140EC03002021B1826842F001022B
:10042000826003E0826822F001028260704721B19D
:10043000826842F48072826003E0826822F48072F3
:100440008260704710B504461248844208D10121E9
:10045000401501F0F1FA0021601501F0EDFA17E006
:100460000D48844208D10121001501F0E5FA002170
:10047000201501F0E1FA0BE00848844208D101217F
:10048000C80301F0D9FA00214FF4004001F0D4FA7A
:1004900010BD00000024014000280140003C014044
:1004A000014600208A6812F0040F01D0012000E00C
:1004B00000207047014600208A6812F0080F01D022
:1004C000012000E00020704730B5024600200023E4
:1004D00050680F4C20400D790C6844EA05242043F5
:1004E000506090680B4C2040D1E902542C434D7968
:1004F00044EA450420439060D06A20F470000C7CEC
:10050000641EE4B2234340EA0350D06230BD0000D1
:10051000FFFEF0FFFDF7F1FFF0B504460D460020A9
:100520000021092D11DDE068A5F10A0606EB46075A
:10053000072606FA07F18843A5F10A0606EB4606E8
:1005400003FA06F10843E0600CE0206905EB45077B
:10055000072606FA07F1884305EB450603FA06F17C
:1005600008432061072A0FDA606B561E06EB8607E8
:100570001F2606FA07F18843561E06EB860605FA83
:1005800006F10843606322E00D2A0FDA206BD61FC4
:1005900006EB86071F2606FA07F18843D61F06EBEF
:1005A000860605FA06F10843206310E0E06AA2F12E
:1005B0000D0606EB86071F2606FA07F18843A2F10F
:1005C0000D0606EB860605FA06F10843E062F0BD6B
:1005D000816841F008018160704721B1826842F46E
:1005E000A002826003E0826822F4A0028260704769
:1005F000816841F0040181607047000030B1074913
:10060000096841F40001054A116005E003490968E1
:1006100021F40001014A11607047000008240140E4
:1006200010B504463348007838B9AA2C05D101200A
:1006300030490870304804705AE02E48007801288C
:1006400007D1AF2C05D102202A4908702A484470EE
:100650004EE028480078022807D1F12C05DA032063
:10066000244908702448847042E022480078032816
:100670000CD1322C0ADA04201E4908701E48C470BE
:100680001E48047000201E49087031E019480078A7
:10069000042819D119480078002815DD174800787A
:1006A000401E164908701648007815490978491CFB
:1006B000134A1170001D10490C5410480078B8B945
:1006C00005200C49087013E00A48007805280CD171
:1006D0000020084908700A480078001D06490C549B
:1006E0002021054800F00EF802E0002001490870C2
:1006F00010BD000060000020FC0000205E00002013
:100700005F00002070B504460D462021204600F011
:10071000EDFF70BD2DE9F84306460F460024A046C4
:10072000AA222146641C1F4842542146641C42549C
:1007300005222146641C425400222146641C425476
:1007400000969DF801202146641C42549DF800202B
:100750002146641C425400979DF801202146641CE8
:1007600042549DF800202046611CCCB20D490A5429
:10077000201FC870002506E00A48405D404400F094
:10078000FF08681CC5B2A542F6DB2046611CCCB24E
:10079000044901F800802146024802F0F3F9BDE85F
:1007A000F88300003F0100207FB500240026AA2224
:1007B0002146641C5D484254AF222146641C4254C9
:1007C00003222146641C425400222146641C4254E8
:1007D0009DF801202146641C42549DF800202146CA
:1007E000641C42549DF805202146641C42549DF827
:1007F00004202046611CCCB24C490A549DF80920C3
:100800002046611CCCB249490A549DF80820204674
:10081000611CCCB245490A549DF80D202046611C4C
:10082000CCB242490A549DF80C202046611CCCB23F
:100830003E490A549DF821202046611CCCB23B4918
:100840000A549DF820202046611CCCB237490A5436
:100850009DF825202046611CCCB234490A549DF8ED
:1008600024202046611CCCB230490A549DF829202E
:100870002046611CCCB22D490A549DF82820204600
:10088000611CCCB229490A5400200B9028480078FA
:1008900020B1BDF82C0040F001000B9025480078F5
:1008A00020B1BDF82C0040F002000B909DF82D20E7
:1008B0002046611CCCB21D490A549DF82C202046CC
:1008C000611CCCB219490A549DF831202046611CA4
:1008D000CCB216490A549DF830202046611CCCB297
:1008E00012490A549DF835202046611CCCB20F49AC
:1008F0000A549DF834202046611CCCB20B490A549E
:10090000201FC870002505E00848405D3044C6B28D
:10091000681CC5B2A542F7DB2046611CCCB2034976
:100920000E5420210148FFF7EDFE7FBD3F0100205E
:100930000D0000200E0000207FB500240026AA2212
:100940002146641C5D4842542146641C42540322E3
:100950002146641C425400222146641C42549DF8E6
:1009600001202146641C42549DF800202146641C4D
:1009700042549DF805202146641C42549DF80420F1
:100980002046611CCCB24D490A549DF809202046EE
:10099000611CCCB249490A549DF808202046611CCC
:1009A000CCB246490A549DF80D202046611CCCB2B9
:1009B00042490A549DF80C202046611CCCB23F49A4
:1009C0000A549DF821202046611CCCB23B490A54B0
:1009D0009DF820202046611CCCB238490A549DF86D
:1009E00025202046611CCCB234490A549DF82420AD
:1009F0002046611CCCB231490A549DF8292020467A
:100A0000611CCCB22D490A549DF828202046611C57
:100A1000CCB22A490A5400200B902948007820B112
:100A2000BDF82C0040F001000B902648007820B162
:100A3000BDF82C0040F002000B909DF82D202046C0
:100A4000611CCCB21D490A549DF82C202046611C23
:100A5000CCB21A490A549DF831202046611CCCB210
:100A600016490A549DF830202046611CCCB2134927
:100A70000A549DF835202046611CCCB20F490A5417
:100A80009DF834202046611CCCB20C490A54201F2A
:100A9000C870002505E00948405D3044C6B2681CB6
:100AA000C5B2A542F7DB2046611CCCB203490E5407
:100AB0002146024802F066F87FBD00003F01002099
:100AC0000D0000200E00002010B54FF4E13001F0C1
:100AD000FDFF00F019FC00F0D3FB4FF4FA7001F0B9
:100AE000B7FE00F0E1FEFFF7D7FB01F097FA012116
:100AF000232000F05BFD00F0E7FC00F047FC03A0C2
:100B000000F042FF01200849087010BD0D0A205274
:100B10006167696E67466972655F52432056322E7F
:100B2000322E32200D0A0000760000202DE9F14F10
:100B300082B017480168029803F0EAF91449086086
:100B400014491348006803F047FC02D800201049FC
:100B500008600F48006803F0AFF9CDE9000102F02A
:100B60007BFB804600220C4B02F0F4FB0646002281
:100B70004FF0804302F0AAFC04460022074B02F02B
:100B8000C1FE824602F02AFE05490880BDE8FE8FBC
:100B900064000020DB0FC9400000F03F003C9F4094
:100BA0004000004000BFFEE721B1026842F00102B0
:100BB000026004E002684FF6FE731A40026070475C
:100BC00001684FF6FE721140016000210160416032
:100BD0008160C1604B49884208D14A490839496857
:100BE00041F00F01474A083A51608AE04549143103
:100BF000884208D143490839496841F0F001414A27
:100C0000083A51607DE03F492831884208D13D498A
:100C10000839496841F470613A4A083A516070E015
:100C200038493C31884208D136490839496841F48D
:100C30007041344A083A516063E032495031884289
:100C400008D130490839496841F470212D4A083AE1
:100C5000516056E02B496431884208D1294908394E
:100C6000496841F47001274A083A516049E0254932
:100C70007831884208D123490839496841F07061C8
:100C8000204A083A51603CE01F49884206D1011FC2
:100C9000096841F00F01021F116032E01A49143156
:100CA000884208D11849091F096841F0F001164A25
:100CB000121F116025E014492831884208D11249D9
:100CC000091F096841F470610F4A121F116018E092
:100CD0000D493C31884208D10B49091F096841F48C
:100CE0007041094A121F11600BE0074950318842D8
:100CF00007D10549091F096841F47021024A121FF2
:100D000011607047080002400804024010B500223C
:100D1000026847F6F0739A430C6A8B6823430C69A8
:100D200023434C6923438C692343CC6923434C6A96
:100D300023438C6A23431A430260CB6843600B68E9
:100D400083604B68C36010BD7047002109E000223A
:100D500001E0531C9AB242F2B8239A42F9DB4B1CD1
:100D600099B28142F3DB70475B48007800287CD061
:100D70005A48007800BB002059490880594908802A
:100D800059490880594908805949088059490880BB
:100D9000594908805949086059490860594908600B
:100DA000594908605949086059490860594908601B
:100DB00001204A490870704748480078401C47495C
:100DC0000870554800884D49096808444B49086037
:100DD000514840884A4909680844494908604E48D2
:100DE0008088484909680844464908604A48C088DC
:100DF000454909680844444908604748008943490F
:100E000009680844414908604348408940490968E5
:100E100008443F490860404880893E4909680844C1
:100E20003C4908602D480078332852D12B4800787F
:100E3000401E2A49087031480068097890FBF1F09B
:100E4000A0F2DC5000B2264908802D4800682349F2
:100E5000097890FBF1F0A0F2DC5000B22149088043
:100E6000284800681D49097800E032E090FBF1F065
:100E7000A0F2DC5000B21C490880234800681749E2
:100E8000097890FBF1F0A0F2DC5000B2174908801D
:100E90001E4800681149097890FBF1F0A0F2DC507F
:100EA00000B2134908801B4800680C49097890FB80
:100EB000F1F0A0F2DC5000B20F4908801A200D4971
:100EC0000880002005490870034908700120134973
:100ED000086000BF6FE700000C0000200F0000203A
:100EE0002C0000202E0000203000002032000020C6
:100EF00034000020360000203800002010000020C0
:100F000014000020180000201C00002020000020F9
:100F10002400002028000020CC030020140C0140F5
:100F200010B54FF4004000F059F828B14FF40040DC
:100F300000F04EF800F008FB10BD000010B50220D4
:100F400000F04CF8B8B1022000F042F80A480068FE
:100F500064380A49096888420DD90748006807497A
:100F600008600748007818B100200549087002E0C1
:100F700001200349087010BD70000020000000200F
:100F80000D00002010B54FF4007000F027F8C0B13C
:100F90004FF4007000F01CF80A48006864380A49F1
:100FA000096888420DD90748006807490860074862
:100FB000007818B100200549087002E001200349BB
:100FC000087010BD70000020040000200E000020FA
:100FD00001490860704700001404014001460020E8
:100FE0000022074B1B6803EA0102054B14331B6800
:100FF0000B4202D00AB1012000E00020704700003F
:1010000000040140002123498279002A3AD00A468F
:10101000126803689A430B461A600A1D1268036837
:101020009A430B1D1A60027911440A6803681A4337
:101030000A60184A0832126803689A43154B08334D
:101040001A601A1D126803689A43124B0C331A6017
:101050004279102A0ED11A1F126803681A430D4BE9
:1010600008331A601A1D126803681A43094B0C33BF
:101070001A600DE00749427911440A6803681A436F
:101080000A6005E0027911440A6803689A430A601D
:10109000704700000004014030B500228B071C0F90
:1010A0000F2303FA04F20B4B8C1053F824309343B4
:1010B000084C8D1044F8253023468C1053F824300A
:1010C0008C07240F00FA04F42343024C8D1044F8DB
:1010D000253030BD080001402DE9F04102460025D1
:1010E0000026002000230024002791F803C00CF004
:1010F0000F0591F803C01CF0100F03D091F802C047
:101100004CEA050591F800C0BCF1000F31D014681D
:1011100000202BE04FF0010C0CFA00F3B1F800C0F6
:101120000CEA03069E4220D183004FF00F0C0CFA0C
:1011300003F7BC4305FA03FC4CEA040491F803C02E
:10114000BCF1280F06D14FF0010C0CFA00FCC2F8DC
:1011500014C00AE091F803C0BCF1480F05D14FF06C
:10116000010C0CFA00FCC2F810C0401C0828D1D3B6
:101170001460B1F800C0BCF1FF0F34DD54680020EA
:101180002EE000F1080C4FF0010808FA0CF3B1F85A
:1011900000C00CEA03069E4221D183004FF00F0CE1
:1011A0000CFA03F7BC4305FA03FC4CEA040491F87B
:1011B00003C0BCF1280F05D100F1080C08FA0CF8A7
:1011C000C2F8148091F803C0BCF1480F07D100F1B8
:1011D000080C4FF0010808FA0CF8C2F81080401C07
:1011E0000828CED35460BDE8F0810000F0B50A466F
:1011F000002300240021002500F00046B6F1004F36
:1012000002D11D4EF16901E01B4E7168C0F3034528
:1012100083B200F44016B6F5401F08D121F070618A
:10122000154E766826F07066134F7E6012E000F46B
:101230008016B6F5801F06D1032606FA05F4A143F1
:1012400041F0706106E0460D360103FA06F6B1433F
:1012500041F0706122B1460D360103FA06F63143C2
:1012600000F00046B6F1004F02D1034EF16101E0FB
:10127000014E7160F0BD00000000014000BFFEE7BC
:101280000EB50121092000F0C7FB0220ADF80800CF
:1012900048208DF80B0002A91448FFF71DFF4FF4FA
:1012A0000070ADF8080048208DF80B0002A90F4827
:1012B000FFF712FF01210846FFF7EEFE092101208A
:1012C000FFF7EAFE40F20220009000208DF80400B3
:1012D0000C208DF8050001208DF806006846FFF708
:1012E00091FE03A000F050FB0EBD0000000C014079
:1012F0000D4B45595F496E69745F7375636365652E
:10130000642E2E2E0A00000008B50121082000F0EE
:1013100083FB0120ADF8000003208DF802001020AF
:101320008DF8030069461248FFF7D6FE4FF40060BF
:10133000ADF8000003208DF8020018208DF803009E
:1013400069460B48FFF7C8FE4FF48050ADF8000027
:1013500003208DF8020010208DF803006946044830
:10136000FFF7BAFE01F030FA02A000F00DFB08BD55
:10137000000C01400D4C45445F496E69745F737504
:1013800063636565642E2E2E0A00000010B50024EC
:1013900021E00020174908804FF48050164908606A
:1013A0004FF0010001F1040108604FF0C800FFF7A1
:1013B000CCFC4FF480501049091D086040F2CF70FA
:1013C0000907A1F8400001200B490860C820FFF779
:1013D000BCFC601CC4B2032CDBDB40F2CF700549BF
:1013E00008804FF48050044908604FF06400FFF714
:1013F000ACFC10BD40000040100C014010B51E4870
:101400000088B0F5967F26DD1B480088B0F5B97FCF
:1014100021DA0120194908601948FFF787FB1648AF
:101420000088B0F5AF7F12DA16480078401C1549E5
:10143000087008460078C8281DDB40F2DC501249CD
:1014400008804FF480501149086000BFFEE700207B
:101450000C4908700FE00E48007830B101200B49AC
:1014600008600C48FFF762FB05E0012003490860B3
:101470000948FFF75BFB10BD90000020140C0140F1
:10148000CDCCCC3E6800002040000040100C014054
:101490000D0000200AD7A33CCDCC4C3E00BFFEE798
:1014A0007047000010B50648C078401DC4B2214600
:1014B000034801F067FB4FF480500249086010BDFB
:1014C000FE030020140C01401CB5052210493020F9
:1014D00000F022F905226946102000F0D1F800241E
:1014E00008E01DF804000A49095D884200D003E0C5
:1014F000601CC4B2052CF4DB00BF052C03D105A091
:1015000000F042FA02E00AA000F03EFA1CBD000022
:10151000920000200D4E524632344C30315F496EFD
:1015200069745F737563636565642E2E2E0A00000F
:101530000D4E524632344C30315F496E69745F66ED
:1015400061696C2E2E2E0A0070B5072000F0B8F8E5
:10155000044614F0400F13D0602000F0B1F80546A7
:10156000202D08D12A460F49612000F089F800207B
:101570000D49088003E0FF21E22000F0EDF800BFF4
:1015800014F0100F06D014F0010F03D0FF21E1205A
:1015900000F0E2F800F054F82146272000F0DCF8D3
:1015A00070BD0000FE0300209C00002070B50546C1
:1015B0000C464FF480401F494861FF21E12000F0B4
:1015C000CBF8FF21E22000F0C7F805221A493020AD
:1015D00000F0A2F8052219492A2000F09DF8012107
:1015E000212000F0B9F80121222000F0B5F81A21DD
:1015F000242000F0B1F82946252000F0ADF8202184
:10160000312000F0A9F80F21262000F0A5F8012CC8
:1016100004D10E21202000F09FF805E0022C03D118
:101620000F21202000F098F84FF480400149086114
:1016300070BD0000001001409200002097000020C3
:1016400010B54FF48040054948610F21202000F07B
:1016500083F84FF480400149086110BD001001403B
:1016600010B54FF48040054948610E21202000F05C
:1016700073F84FF480400149086110BD001001402B
:101680002DE9F04107460D4616464FF400500B4930
:101690004861384600F08CFD8046002405E00020BB
:1016A00000F086FD2855601CC4B2B442F7DB4FF44D
:1016B0000050024908614046BDE8F0810010014039
:1016C00070B504464FF4005007494861204600F0C9
:1016D0006FFD002000F06CFD05464FF400500249FC
:1016E0000861284670BD00000010014070B5044636
:1016F0000D46FFF7B5FF4FF48040064948612A4682
:101700002146A02000F008F84FF48040014908610C
:1017100070BD0000001001402DE9F04107460D4664
:1017200016464FF400500B494861384600F040FD22
:101730008046002404E0285D00F03AFD601CC4B23D
:10174000B442F8DB4FF40050024908614046BDE85E
:10175000F08100000010014070B505460C464FF4C2
:10176000005007494861284600F022FD0646204601
:1017700000F01EFD4FF4005001490861304670BD75
:101780000010014070B5002100230F22C4780CB373
:10179000164C246804F4E064C4F5E064210AC1F145
:1017A0000403CA40447804FA03F1847814402143C6
:1017B00009010F4C0678A155047804F01F05012497
:1017C000AC4005786D114FF0E02606EB8505C5F8B5
:1017D000004109E0047804F01F050124AC40054DE8
:1017E0000678761145F8264070BD00000CED00E04B
:1017F00000E400E080E100E002490143024A116098
:10180000704700000000FA050CED00E010B586B04E
:1018100020480088401C1F4908800846008801288D
:1018200001D1FFF73FFE1B480088322190FBF1F207
:1018300001FB1200E0B9FFF787FE1748018800207E
:10184000FEF768FF00221548C08914498989CDE94F
:1018500003021248059202914089104909890F4CF0
:10186000CDE90010A388E28861882088FFF764F83A
:1018700008480088B0F5FA7F09DB4FF4805008492A
:10188000086001200349088000200649088006B04E
:1018900010BD00009C00002090000020DC03002010
:1018A000100C01408E00002008B54FF4A060FFF737
:1018B000A3FF1D208DF8000000208DF801000120FD
:1018C0008DF802008DF803006846FFF75BFF2820C3
:1018D0008DF8000001208DF8010000208DF8020035
:1018E00001208DF803006846FFF74CFF25208DF896
:1018F000000002208DF8010000208DF80200012078
:101900008DF803006846FFF73DFF07208DF80000C3
:1019100003208DF8010000208DF8020001208DF8D1
:1019200003006846FFF72EFF17208DF80000032004
:101930008DF8010000208DF8020001208DF80300D1
:101940006846FFF71FFF08BD7047000010B504464A
:101950000A4801780078401C084A1070084844542E
:101960000848008810F0800F06D1012240F227714C
:1019700004480C3801F012F810BD00006A00002085
:101980004C0200200C38014070B505462C4603E09F
:101990002078FFF7DBFF641C20780028F8D170BDA9
:1019A00001460020034A506820F44040084350603C
:1019B000704700000010024029B1064A52690243F4
:1019C000044B5A6104E0034A52698243014B5A6155
:1019D000704700000010024029B1064AD269024354
:1019E000044BDA6104E0034AD2698243014BDA61B5
:1019F000704700000010024029B1064A12690243F4
:101A0000044B1A6104E0034A12698243014B1A61D4
:101A1000704700000010024029B1064A9269024353
:101A2000044B9A6104E0034A92698243014B9A6134
:101A3000704700000010024029B1064AD2680243F4
:101A4000044BDA6004E0034AD2688243014BDA6057
:101A5000704700000010024030B500210022002431
:101A600000232D4D6D6805F00C0121B1042905D02E
:101A7000082923D105E0294D056022E0274D0560A6
:101A80001FE0254D6D6805F47012234D6D6805F457
:101A90008034022505EB92421CB9214D5543056067
:101AA0000BE01D4D6D6815F4003F03D01C4D5543F0
:101AB000056002E0194D5543056002E0174D0560D1
:101AC00000BF00BF144D6D6805F0F0010909154D08
:101AD0006B5C0568DD4045600F4D6D6805F4E061A5
:101AE000090A104D6B5C4568DD4085600A4D6D68E4
:101AF00005F46051C90A0B4D6B5C4568DD40C5605B
:101B0000054D6D6805F44041890B074D6B5CC56858
:101B1000B5FBF3F5056130BD0010024000127A00FC
:101B200000093D009E000020AE0000200188B1F5B4
:101B30007A7F02DC4FF47A7100E00188018001882D
:101B4000B1F5FA6F02DB4FF4FA6100E00188018021
:101B50008188B1F57A7F02DC4FF47A7100E08188E8
:101B600081808188B1F5FA6F02DB4FF4FA6100E001
:101B700081888180C188B1F57A7F02DC4FF47A7167
:101B800000E0C188C180C188B1F5FA6F02DB4FF473
:101B9000FA6100E0C188C1804188B1F57A7F02DC3A
:101BA0004FF47A7100E0418841804188B1F5FA6FC5
:101BB00002DB4FF4FA6100E0418841800189B1F510
:101BC0007A7F02DC4FF47A7100E00189018101899A
:101BD000B1F5FA6F02DB4FF4FA6100E0018901818F
:101BE0004189B1F57A7F02DC4FF47A7100E04189D6
:101BF00041814189B1F5FA6F02DB4FF4FA6100E0EF
:101C0000418941818189B1F57A7F02DC4FF47A7193
:101C100000E0818981818189B1F5FA6F02DB4FF49F
:101C2000FA6100E081898181704700002DE9F04769
:101C300081460C46E149088902F0BAFA06464FF09F
:101C40007A5102F0FDFA054602F092FA00F57A7038
:101C5000DB490988401AA9F80000D849C88902F070
:101C6000A7FA06464FF07A5102F0EAFA054602F06A
:101C70007FFAC0F5FA60D3490988401AA9F8040030
:101C8000CE49488902F094FA06464FF07A5102F0A4
:101C9000D7FA054602F06CFA00F57A70CA4909884D
:101CA000401AA9F80200C549888902F081FA06465F
:101CB0004FF07A5102F0C4FA054602F059FAC0F525
:101CC000FA60C2490988401AA9F80600BB49888809
:101CD00002F06EFA06464FF07A5102F0B1FA05466C
:101CE00002F046FA00F57A70B9490988401AA9F855
:101CF0000C00B249088802F05BFA06464FF07A51B0
:101D000002F09EFA054602F033FA00F57A70B14906
:101D10000988401AA9F80A00A849488802F048FA38
:101D200006464FF07A5102F08BFA054602F020FA8F
:101D300000F57A70A8490988401AA9F808004846B1
:101D4000FFF7F4FEFFF710F8A448A549097830F82A
:101D50001100A4490968081AA2490860A248A049CC
:101D6000097830F81100A1490968081A9F490860EC
:101D70009F489B49097830F811009E490968081A64
:101D80009C4908609C489649097830F811009B49A5
:101D90000968081A9949086099489149097830F802
:101DA000110098490968081A9649086096488C49B4
:101DB000097830F8110095490968081A93490860B4
:101DC00093488749097830F8110092490968081A40
:101DD00090490860B9F804008049814A127821F8D6
:101DE0001200B9F8060080497D4A127821F81200E5
:101DF000B9F800107E487A4A127820F81210B9F823
:101E000002007D49764A127821F81200B9F80800DC
:101E10007B49734A127821F81200B9F80A007A490E
:101E20006F4A127821F81200B9F80C0078496C4A10
:101E3000127821F8120069486949097830F81100D0
:101E4000684909680844674908606748644909782F
:101E500030F811006549096808446449086064481D
:101E60005F49097830F811006249096808446149FE
:101E7000086061485A49097830F811005F490968DB
:101E800008445E4908605E485549097830F81100F9
:101E90005C49096808445B4908605B485049097817
:101EA00030F81100594909680844584908605848F1
:101EB0004B49097830F811005649096808445549DA
:101EC0000860484800680521B0FBF1F0A080474851
:101ED0000068B0FBF1F0E08046480068B0FBF1F02C
:101EE000208046480068B0FBF1F0608045480068FB
:101EF000B0FBF1F0208145480068B0FBF1F0608153
:101F000044480068B0FBF1F0A08135480078401CDF
:101F10003349087008460078052801D10020087070
:101F20002188A1F2DC5149436288A2F2DC52638825
:101F3000A3F2DC5302FB031001F07DFC074601F025
:101F4000E3F905460022344B01F0A0FC03D840F22F
:101F5000DC5020806080E188A1F2DC514943A288F6
:101F6000A2F2DC52A388A3F2DC5302FB031001F0BF
:101F700062FC054601F0C8F907460022264B01F035
:101F800085FC03D840F2DC50E080A0802089B0F5C9
:101F9000BB6F06DB2089B0F5BC6F02DC40F2DC5081
:101FA0002081A089B0F5BB6F06DBA089B0F5BC6FBE
:101FB00002DC40F2DC50A081BDE8F087EC03002099
:101FC0002C000020300000202E00002032000020D5
:101FD000380000203600002034000020B40000202B
:101FE0003C00002040000020BE00002044000020F3
:101FF000C800002048000020D20000204C00002033
:10200000DC00002050000020E600002054000020EA
:10201000F0000020580000200000394000B589B0D1
:1020200001211920FFF7F8FC01218803FFF7D4FCF8
:102030004FF46040ADF80C0001208DF80E00182020
:102040008DF80F0003A93548FFF746F84FF480409C
:10205000ADF80C0001208DF80E0010208DF80F0057
:1020600003A92F48FFF738F84FF40050ADF80C00E3
:1020700001208DF80E0010208DF80F0003A92848CC
:10208000FFF72AF84FF40040ADF80C0003208DF85C
:102090000E0048208DF80F0003A92148FFF71CF817
:1020A0000F210220FEF7F8FF4FF4004001900020BE
:1020B0008DF808000C208DF8090001208DF80A0029
:1020C00001A8FEF79FFF4FF400501549086100205A
:1020D000ADF810004FF48270ADF812000020ADF89A
:1020E0001400ADF81600ADF818004815ADF81A0048
:1020F0001020ADF81C000020ADF81E000720ADF840
:10210000200004A9074800F035F80121054800F037
:1021100017F805A0FFF738FC09B000BD000C01401E
:1021200000100140003800400D535049325F496EA5
:1021300069745F737563636565642E2E2E0A0000F3
:1021400021B1028842F04002028004E002884FF68A
:10215000BF731A40028070470246002013890B4269
:1021600001D0012000E000207047014688897047B7
:102170008181704710B50022028802F441520B8819
:102180004C8823438C882343CC8823430C892343E6
:102190004C8923438C892343CC8923431A430280EF
:1021A000838B4FF2FF74234083830B8A038210BD1D
:1021B00010B5044600BF02210A48FFF7CDFF0028F2
:1021C000F9D021460748FFF7D3FF00BF012105489A
:1021D000FFF7C2FF0028F9D00248FFF7C6FFC0B2E0
:1021E00010BD000000380040704710B500F002F844
:1021F00010BD00000CB5002001900090324800682E
:1022000040F480303049086000BF2F48006800F477
:10221000003000900198401C0190009818B9019876
:10222000B0F5A06FF1D12848006810F4003F02D04B
:102230000120009001E0002000900098012842D188
:102240002248006840F010002049086008460068F5
:1022500020F0030008600846006840F002000860B3
:102260001948406818494860084640684860084670
:10227000406840F4806048600846406820F47C1064
:1022800048600846406840F4E81048600846006826
:1022900040F08070086000BF0B48006810F0007FBD
:1022A000FAD00948406820F0030007494860084612
:1022B000406840F00200486000BF0348406800F0FA
:1022C0000C000828F9D10CBD00100240002002408B
:1022D0007047000010B51348006840F00100114934
:1022E000086008464068104908400E4948600846A2
:1022F00000680E4908400B4908600846006820F451
:10230000802008600846406820F4FE0048604FF4D2
:102310001F008860FFF769FF4FF000600449086004
:1023200010BD0000001002400000FFF8FFFFF6FEA5
:1023300008ED00E01348008810F0010F20D04FF6A0
:10234000FE70104908801048007800B970470F48A7
:102350000068401C0D4908600D480078401C0C497D
:1023600008700C480078401C0A4908700A48007838
:10237000401C0949087009480078401C074908704A
:1023800000BFE3E71004004076000020700000204A
:1023900008000020090000200A0000200B00002097
:1023A00021B1028842F08002028004E002884FF6E8
:1023B0007F731A4002807047CA430282704721B17E
:1023C000028842F00102028004E002884FF6FE73A8
:1023D0001A4002807047000010B5044668488442E5
:1023E00008D10121C014FFF727FB0021E014FFF7FB
:1023F00023FBC4E0B4F1804F08D101210846FFF768
:10240000FBFA00210120FFF7F7FAB8E05D488442AB
:1024100008D101210220FFF7EFFA00210220FFF787
:10242000EBFAACE05848844208D101210420FFF7C0
:10243000E3FA00210420FFF7DFFAA0E053488442CA
:1024400008D101210820FFF7D7FA00210820FFF763
:10245000D3FA94E04E48844208D101211020FFF7BE
:10246000CBFA00211020FFF7C7FA88E049488442E0
:1024700008D101212020FFF7BFFA00212020FFF71B
:10248000BBFA7CE04448844208D101214014FFF7A4
:10249000D3FA00216014FFF7CFFA70E03F4884427E
:1024A00009D10121C804FFF7C7FA00214FF4002029
:1024B000FFF7C2FA63E03A48844209D101210805D6
:1024C000FFF7BAFA00214FF48010FFF7B5FA56E093
:1024D0003448844209D101214805FFF7ADFA0021B3
:1024E0004FF40010FFF7A8FA49E02F48844208D1C2
:1024F00001214020FFF780FA00214020FFF77CFAFD
:102500003DE02A48844208D101218020FFF774FA77
:1025100000218020FFF770FA31E02548844208D17D
:1025200001218015FFF768FA0021A015FFF764FA72
:1025300025E02048844209D101210804FFF77CFAF4
:1025400000214FF48030FFF777FA18E01A488442F0
:1025500009D101214804FFF76FFA00214FF4003040
:10256000FFF76AFA0BE01548844208D1012188047C
:10257000FFF762FA00214FF48020FFF75DFA10BDEB
:10258000002C01400004004000080040000C004006
:10259000001000400014004000340140004C014095
:1025A000005001400054014000180040001C004051
:1025B000002000400040014000440140004801402C
:1025C0001AB183890B43838102E083898B43838122
:1025D0007047000070B5002200230024058C4EF6E1
:1025E000FF7635400584038C8488828B48F6FF751E
:1025F0002A404FF6FF452A400D884FF6FF7606EA3F
:1026000005252A434DF6FF752B400D8906EA053551
:102610002B434D8806EA05352B430B4DA84202D0CB
:102620000A4DA84208D14BF6FF752C408D894FF614
:10263000FF7606EA85152C4384808283CD88A0F836
:102640004050038470BD0000002C01400034014064
:102650000A460021818B4FF2FF7319404FF6FF733A
:1026600003EA022319438183704700000022028895
:102670001D4B98420ED01D4B98420BD0B0F1804FAD
:1026800008D01B4B984205D01A4B984202D01A4BE7
:10269000984204D14FF68F731A404B881A43174B58
:1026A000984207D0164B984204D04FF6FF431A4089
:1026B000CB881A4302808B8883850B8803850A4B5D
:1026C00098420BD0094B984208D00E4B984205D047
:1026D0000D4B984202D00D4B984201D10B7A0386E4
:1026E0000123838270470000002C01400034014028
:1026F0000004004000080040000C004000100040B2
:1027000000140040004001400044014000480140E6
:1027100010B586B000220D4803880D48C0890C49C9
:102720008989CDE90432CDE9021009484089084978
:102730000989074CCDE90010A388E28861882088C8
:10274000FEF732F8FEF75AFE06B010BD90000020EA
:10275000DC030020704700002DE9F0471049088A8B
:1027600001F026FD80460E49C88801F021FD814612
:102770004FF0804101F064FD0746414601F036FC10
:102780000646084901F05CFD0546074901F058FD81
:10279000044601F0EDFC05490880BDE8F087000023
:1027A000EC03002052B89E3F0000C8429000002079
:1027B00010B5FFF72BF802490248FFF737FA10BDB2
:1027C000DC030020CC03002000B587B001210846BF
:1027D000FFF702F901210846FFF71EF901211A4807
:1027E000FEF704FD40F2CF70ADF814004720ADF8BD
:1027F00010000020ADF81600ADF8120004A94FF04B
:102800008040FFF733FF6020ADF800000120ADF8F5
:1028100002000020ADF80600ADF8080069464FF050
:102820008040FFF7D7FE0821C806FFF711FF0121FE
:102830008807FFF7B5FD01218807FFF7C0FD0020DD
:102840000249088007B000BD0002180040000040A7
:102850003EB5044601210220FFF7BEF8134804806C
:102860001348FFF7B9FD134890FBF4F080B2ADF8C0
:1028700004004720ADF800000020ADF80600ADF8D8
:10288000020069460A48FFF7F1FE01210848FFF7F8
:1028900093FD012211460648FFF792FE01210448EC
:1028A000FFF78DFD04A0FFF76FF83EBD7400002018
:1028B0000004004040420F000D54696D6572335FA3
:1028C000496E69745F737563636565642E2E2E0AA5
:1028D0000000000010B508211B4800F052F810B1AC
:1028E000194800F0EDF81848008810F0400F1ED08D
:1028F00015480C30008810F0800F18D0134801786C
:102900000078401C114A10701148405C0E49091DA6
:102910000880104600780F490978884207D10A4894
:102920000C30008820F0800007490C3108800648F0
:10293000008810F0200F05D00349091D0988C8B28E
:10294000FDF76EFE10BD0000003801406900002058
:102950004C0200206A00002001F40072B2F5007FF2
:1029600000D100BFCA430280704721B1828942F47E
:102970000052828104E082894DF6FF731A40828101
:10298000704702460020B1F5007F00D100BF1388D8
:102990000B4201D0012000E000207047F0B5034653
:1029A0000024002600250020A1F510676A3F00D111
:1029B00000BF1846C1F3421401F01F06012707FAB1
:1029C00006F5012C01D10C3004E0022C01D11030AD
:1029D00000E014301AB107682F43076002E007686F
:1029E000AF430760F0BD00002DE9F04786B0054613
:1029F0000E460024A24600BFA1460027B08900B1C0
:102A000000BF2F462C8A4CF6FF700440F088044328
:102A10002C82AC894EF6F3100440B088318908430B
:102A2000718908430443AC81AC8A4FF6FF400440EF
:102A3000B0890443AC8201A8FFF70EF81F48874213
:102A400002D1DDF810A001E0DDF80CA0A88910F497
:102A5000004F08D00AEBCA0000EB0A1031684900A9
:102A6000B0FBF1F807E00AEBCA0000EB0A1031688E
:102A70008900B0FBF1F86420B8FBF0F004012009F4
:102A8000642101FB1089A88910F4004F08D032207E
:102A900000EBC900B0FBF1F000F00700044308E0D0
:102AA000322000EB09106421B0FBF1F000F00F00C0
:102AB00004432C8106B0BDE8F087000000380140D7
:102AC00001468888C0F308007047000010B586B042
:102AD000044601210520FEF79FFF01218803FEF730
:102AE0009BFF4FF40070ADF8140018208DF817000C
:102AF00003208DF8160005A91A48FEF7EDFA4FF4E9
:102B00008060ADF8140004208DF8170003208DF8C4
:102B1000160005A91348FEF7DFFA01940020ADF86E
:102B20000800ADF80A00ADF80C00ADF810000C205C
:102B3000ADF80E0001A90C48FFF756FF012240F244
:102B400025510948FFF72AFF01210748FFF70DFF2C
:102B500040210548FFF700FF04A0FEF715FF06B06F
:102B600010BD000000080140003801400D556172A1
:102B700074315F496E69745F737563636565642E54
:102B80002E2E0A0070B504460D4605E02078FEF7AB
:102B9000DDFE641C681EC5B2002DF7D170BD00BFFC
:102BA000FEE7490050EAC12018BF04204A0D18BFB3
:102BB00040F0010040F2FF72B2EB515F08BF40F0FD
:102BC0000200012808BF0520704700002DE9F74FDB
:102BD000144696B00021C4E902111799089121F01A
:102BE0000045CA498D4206DC1799C4E9000119B0B5
:102BF0000020BDE8F08FC649DFF818A3A9423CDDEC
:102C00000899C54E0029C54FC54A1799534619DD85
:102C100001F068F8554506D0C24AC34B01F062F88E
:102C2000C4E900010AE04FF0D352BF4B01F05AF85B
:102C300032463B4601F056F8C4E9000119B00120C4
:102C4000BDE8F08F00F086FB554506D0B54AB64B7F
:102C500000F080FBC4E900010AE04FF0D352B24B10
:102C600000F078FB32463B4600F074FBC4E90001FB
:102C700019B04FF0FF30BDE8F08FAC49A942179969
:102C800078DB21F000488346A94AAA4B414600F070
:102C900039FE0022A84B00F05DFB00F06FFD0990AB
:102CA00000F0C9FD06460F469D4A534600F02AFE35
:102CB0005A46434600F024FF80468A46994A9A4B7A
:102CC0003046394600F01EFE2A0D01250B92424681
:102CD000534600F015FF032DC4E9000139D00B98CD
:102CE000C1F30A51401A05EB45111139814230DA1E
:102CF0009248C346784400EB0510CDF81CA00C9018
:102D0000D0E900233046394600F0FCFDCDE9020150
:102D100002460B465846079900F0E4FF80468A4673
:102D200002460B465846079900F0DCFFDDE9022316
:102D300000F0D8FF83460C9803913946D0E902236E
:102D4000304600F0DFFD5A46039B00F0CBFF6D1CC0
:102D5000BDE708980028A2BF099819B0BDE8F08F18
:102D6000616881F000416160099819B04042BDE896
:102D7000F08FFFE7C1F3130141F480110E91179911
:102D8000C1F30A51A1F2F532511102F01F08C8F146
:102D90002002129200220C920D92694A7A4402EBB0
:102DA000810101F1140C0DA95FF00607DCF8002089
:102DB000DCF8045002FA08F3129AD1F800A025FAC0
:102DC00002F21A430E9BA2FB0356A2FB00329A4466
:102DD00015449A4534BF4FF0010B4FF0000B51F8EA
:102DE000043C05EB0B0E7344954234BF01220022D4
:102DF0001644BBF1000F02D0AB4202D903E0AB4254
:102E000001D2012200E000223244C1F800A041E9D1
:102E10000223091FACF1040C7F1EC7D10898DDE91D
:102E20000A6500F10050800F11900898099F8000FA
:102E300000F001FD80468A46384600F013FD6FF031
:102E40001D0201F0A2FB07463046059100F00AFD85
:102E50006FF03D0201F099FBCDE90310284600F028
:102E600001FD6FF05D0201F090FB064602460B4645
:102E70000191DDE9031000F06DFA3A46059B00F080
:102E800069FA4246534600F065FA00200D46834633
:102E90004246534600F026FF3A46059B00F022FFCB
:102EA000DDE9033200F01EFF3246019B00F028FEF0
:102EB000DFF89480234A434600F024FD06460F467F
:102EC000224A234B5846294600F01CFD32463B4619
:102ED00000F040FA0F4606464FF0A84243465846D7
:102EE000294600F00FFD32463B4600F033FA179AB0
:102EF00012F0004F04D0119A81F000415242119219
:102F0000C4E90001119819B0BDE8F08FFB21E93F39
:102F10007CD90240FB21F93F7370032E8A19A33B31
:102F2000000040543163621A61B4D03DFB21394145
:102F300083C8C96D305FE43F0000E03F50190000D6
:102F4000D8180000182D4454FB21F93D3326A61152
:102F5000460B113C2DE9FF4D21F0004807460C4679
:102F6000B8F1795F08DA00F009FC002801BF002001
:102F7000324904B0BDE8F08D3A4623461046194662
:102F800000F0C0FC054602462D480E460B460621C1
:102F9000784400F05DF82A46334600F0B3FCDDE9E2
:102FA000022382468B463846214600F0ABFC04469D
:102FB0000F4652465B462846314600F0A3FC2246A7
:102FC0003B4600F08FFE07468A464FF0FF32284608
:102FD000314601F0DAFA1B4A90450ADA3A4653467E
:102FE00000F080FE04B00022BDE8F04D134B00F06D
:102FF00087BD154A4245A8BFA8F500154FF000044B
:10300000B8BF124D22462B4600F06CFE064688469D
:1030100022462B460020094900F064FE04460D4676
:103020003A4653463046414600F05CFE04B0224624
:103030002B46BDE8F04D00F063BD00000000F03FFE
:10304000841600003333D33F0000E93F0000D23F35
:103050002DE9F0414F1E00EBC7010446D1E9000104
:1030600015461E4637F006020DD02A46334600F0BC
:1030700049FC7F1E04EBC703D3E9002300F06AF983
:1030800037F00602F1D1022F25D0042F13D0062FDE
:1030900018BFBDE8F0812A46334600F033FCD4E97E
:1030A0000A2300F057F92A46334600F02BFCD4E9F6
:1030B000082300F04FF92A46334600F023FCD4E9F8
:1030C000062300F047F92A46334600F01BFCD4E9FA
:1030D000042300F03FF92A46334600F013FCD4E9FC
:1030E000022300F037F92A46334600F00BFCD4E9FE
:1030F0000023BDE8F04100F02DB900002DE9FF4D9F
:10310000054621F0004084B00C46B0F1795F0BDA3F
:103110002846FFF746FD042808BF00F065F828465A
:1031200008B02146BDE8F08D2A460B46104600F057
:10313000E9FB06460F462A46234600F0E3FB80469D
:1031400026488A4632463B4605217844FFF780FFF1
:1031500083461098029160B3214A224B4046514663
:1031600000F0D0FBCDE900015A4640465146029B93
:1031700000F0C8FB82468846DDE906014FF0FF32C9
:1031800001F003FA5246434600F0ACFD32463B469E
:1031900000F0B8FBDDE9062300F0A4FDDDE9002323
:1031A00000F0A0FD08B02A462346BDE8F04D00F02F
:1031B000A7BC0B465A463046394600F0A3FB084AE6
:1031C000084B00F0C7F84246534600F09BFB08B09E
:1031D0002A462346BDE8F04D00F0BCB8C2150000F9
:1031E000495555555555C5BF024A0020110701F0F4
:1031F000CCB9000001FDFFFFFDF766FC23E012489B
:103200000078012804DB00200F490870FFF7D0FA8E
:103210000E480078052804DB00200C490870FFF7F1
:1032200077FA0B480078142804DB0020084908705E
:10323000FFF790FA074800787D2804DB0020054955
:103240000870FFF789FADAE708000020090000207B
:103250000A0000200B00002000B5294B21F000429D
:1032600087B09A4203DC00221346009233E0254BDC
:103270009A420DD168B94FF00100FCF7ADFF002272
:1032800007B01346104611465DF804EB00F01EB976
:1032900006DB07B04FF001025DF804EB01F075B9F1
:1032A00002AAFFF793FC10F003014FF001000DD0CC
:1032B000012914D002291AD00DF1080CBCE80F0026
:1032C000FFF748FE07B081F0004100BD0DF1080C8A
:1032D0000090BCE80F00FFF711FF07B000BD0DF133
:1032E000080CBCE80F00FFF735FE07B000BD0DF17C
:1032F000080C0090BCE80F00FFF700FFE2E70000B9
:10330000FB21E93F0000F07F2DE9F04106460F4622
:1033100000F002FC04000D4618BF0120284320F0F5
:103320000040C0F17F6000F1E040C00F0ED0301CC3
:1033300018BF0120384320F00040C0F17F6000F149
:10334000E040C00F04BF0120FCF746FF204629469D
:10335000BDE8F08110B591EA030F48BF83F0004348
:1033600000F1C884841A71EB030C05D2121943EBE7
:103370000C03001B61EB0C01DFF824E14FEA115450
:10338000A4EB135C1EEA430F18BF9EEA445F73D0A0
:1033900023EA0E03DCF1200E21EA045143F48013EA
:1033A00032D322FA0CFE10EB0E0023FA0CFE41EB96
:1033B0000E01CCF1200E03FA0EFE10EB0E0051F1BF
:1033C0000001B1F5801FCCF1200E32D201EB045187
:1033D00012FA0EF2BDE8104058BF7047401C38BFCB
:1033E0005FEA420218BF7047002814BF20F00100B6
:1033F00041F100014FEA410313F5001F38BF704748
:10340000A1F1C04100F076BB012A43EB0302ACF10D
:10341000200CDCF11F0E32BF4FF0000E23FA0CF32C
:1034200010EB030041EB0451B4EB115FD0D0A1EBE2
:10343000045101F5801149085FEA300001EB0451A5
:103440000ED350F1000038BF12FA0EFE08D1BDE8CD
:103450001040C9E7401C38BF5FEA4202CAD1C3E747
:10346000BDE810404FEA410313F5001F38BF704715
:10347000A1F1C04100F03EBB9EEA445F08D011EAD2
:103480005E0FBDE8104004BF01F00041002070470E
:10349000BDE8104070B500F0DFFA00BF64FBBE3E2F
:1034A0000000E0FF02494FF0000001F03CB800BF0F
:1034B0000000F87F491058BFC1F140415B1058BF70
:1034C000C3F140438B42EFF3008070472DE9C041C8
:1034D00030B4DFF8A0C23CEA111418BF3CEA131460
:1034E00000F0EC8081EA03051CEA111444EAD5746B
:1034F00018BF1CEA131500F0C780A4EB05044FF0B9
:10350000004545EAC12145EAC32341EA505143EA57
:10351000525304F17F74994204F500344FEAC020FD
:103520004FEAC22208BF904200F09C804FEA136528
:103530000FF24016765D4FEA134506FB05F7C7F11B
:10354000807706FB07F74FEAD737A7FB0368764279
:10355000C8F58038A7FB06CE38BFA8F1010807FBE5
:1035600008E64FF0000EA6FB028CE6FB03CEDCF172
:10357000000CCEF1004E38BFAEF1010EA6FB0C5888
:103580004FF000074FF00005E6FB0E87A1FB08C6D1
:10359000A0FB07CE16EB0E0645F10005E1FB076523
:1035A00015F1E04E7EBFA4F580345FEA46066D411A
:1035B00016F1800745F100054FEA17274FEA066626
:1035C00047EA0567A6F1DE46B6F1805F4FEA1525AA
:1035D0001FD9384624F0010C05EBC471BCF1FE6F15
:1035E00001EB0C1102D8F0BCBDE8008124425CBFA5
:1035F00001F5801E9EEAC47F02D4F0BCBDE80081C4
:10360000244238D4F0BCA1F1C041BDE8004100F033
:1036100071BA4FEAD22242EA43524FEAD323A7FBC0
:1036200002864FEAD02040EA415007FB03661EEABB
:103630000E0F4FEAD12105FB026658BFA6EB0056DC
:10364000B6EB00564FEA520E4EEAC37E18EB0E0E52
:1036500056EB530EBDD518EB02085E417F1C55F1A9
:103660000005B6E74FF480154FF000074FF0000655
:103670004FF00008ADE7F0BC4FF0000001F1C04191
:1036800001F00041BDE8008111EA0C1F0CEA13159E
:1036900000D00CE013EA0C1F00F025804FF0000072
:1036A000F0BC81EA030101F00041BDE80081F0BCFB
:1036B000BDE8004181EA030100F01CBAF0BCBDE89E
:1036C000004170B500F0C8F9097EFC3E00F007B873
:1036D00081EA03014FF0000001F00041704781EAE8
:1036E000030100F007BAF0BCBDE800414FF0000054
:1036F00021497047FFFDFBF9F7F5F4F2F0EEEDEB31
:10370000E9E8E6E4E3E1E0DEDDDBDAD8D7D5D4D3DF
:10371000D1D0CFCDCCCBCAC8C7C6C5C4C2C1C0BF2B
:10372000BEBDBCBBBAB9B8B7B6B5B4B3B2B1B0AF31
:10373000AEADACABAAA9A8A8A7A6A5A4A3A3A2A115
:10374000A09F9F9E9D9C9C9B9A99999897979695D0
:1037500095949393929191908F8F8E8E8D8C8C8B6C
:103760008B8A8989888887878685858484838382F4
:10377000828181800000FF070000F87F4FEA41034B
:103780004FEA5353A3F58063D3F11E03C8BFD3F1AF
:10379000210C0CDD4FF0004242EAC12242EA5052B5
:1037A00032FA03FC8CEAE17CACEBE1707047102B41
:1037B000C4BF0020704703F5787CBCF1FF3F04D004
:1037C0006FF0004282EA2100704770B500F044F9C2
:1037D0004992248000207047F2E700004FEA11531D
:1037E000A3F58063D3F11E03A8BFD3F1200C08DB3F
:1037F0004FF0004242EAC12252EA505232FA03F03C
:10380000704709420BD4102BC4BF0020704703F54A
:10381000787CBCF1FF3F05D04FF0FF3070474FF090
:103820000000704770B500F017F900BF499224807E
:1038300000207047F0E710F0004248BF4042B0FA65
:1038400080F310FA03F10AD0C3F11D0303F580637E
:103850004FEA415002EB035202EBD12170474FF087
:1038600000007047B0FA80F310FA03F10AD0C3F1F8
:103870001D0303F580634FEA41504FEA035202EB08
:10388000D12170474FF000007047000051EA030C4F
:1038900017D41CF5801F58BFBCF5801F00F10680AF
:1038A000994218BF704708BF9042704707D711F57B
:1038B000801F58BF13F5801F19D499427047894261
:1038C00070471CF5801F08D5BCF5801FF7D58B42CB
:1038D00018BF704708BF824270474FF4001C1CEBB2
:1038E000410F38BF1CEB430F01D28B42704770B5BC
:1038F00000F0B2F8922449004FF000514FF080538D
:10390000FFF7D8BDDFF848C170B51CEA111E1EBF15
:103910001CEA13159EEA0C0F95EA0C0F00F06F805D
:1039200081EA030423EA4C134EEAD47E21EA4C11C7
:1039300041F4801143F48013AE44A1FB024CA0FB80
:103940000365AEF17F7E361955EB0C05A1FB034CE8
:103950004CF10003A0FB021C16EB0C06654153F171
:103960000003094218BF46F0010613F4007F0BD193
:103970004FEA03314FEA0530340341EA155140EA7A
:1039800016506FF003020AE04FEAC3214FEAC52048
:10399000F40241EA555140EA56506FF0020202EB40
:1039A0002E4201EB025585EACE710AD05FEA440C43
:1039B00018BF24F0004450F1000041F1000120EA5A
:1039C000D47040F2FE7C624500D270BDA84214BFA4
:1039D0004FF080444FF04044002E08BF0024BEF159
:1039E000806FA8BFA1F1C041BDE8704080F2828025
:1039F0004FF0000001F1C04101F0004170479EEA24
:103A00000C0F0CEA131518BF95EA0C0F06D04FF0F7
:103A1000000081EA030E0EF0004170BD00F01CF8BA
:103A20008900013E00F007B800F009B84FEA430CE6
:103A30005FEA5C5C08D081EA030100F05BB84FEA02
:103A4000410C5FEA5C5CF6D14FF000000149704721
:103A50000000FF070000F87F0EF1020E2EF0030EAB
:103A60005EF8046B364205D4012A43EB030515F5D5
:103A7000001F12D8012841EB010C1CF5001F0CD8C7
:103A80000ED14FEAD17C15F5001F0CEB4C0C0CF15C
:103A9000020C08BF4CEBD37C04E04FF0080C01E0B3
:103AA0004FEAD37C0CEB4C0526FA05F606F0070628
:103AB000B6F1040C06D20EEB860CBDE870404CF05B
:103AC000010C6047DFE80CF0090B02024FF00041E7
:103AD0004FF00000A1F5002170BD194610460128E5
:103AE00051EB010418BFD4F5001484BF002001F08D
:103AF000004170BD0808A0F500114FEA3101704780
:103B000091EA030F10B581F000413FF52BAC83F033
:103B1000004300F0EFB800002DE9F04101F5801CF2
:103B2000BCF5001FC0F2C3804FEA115C21EA0C51C2
:103B30000CF1FD0C41F480115FEA5C0C0CF5C07CCB
:103B400001D3400049413DA4890241EA90518702D6
:103B50008E0E0A0CA45D04FB04F602FB06F6C6F109
:103B60004046A4FB0662F60D46EA422606FB06F432
:103B7000A4FB01235242C3F1404338BF5B1EA6FBA6
:103B800002420024E6FB0324D20B42EA4446A6FB91
:103B90000623A1FB02E2A3FB07E4A4184FF00002F6
:103BA00052F10002E3FB01426442C2F1404E38BFD1
:103BB000AEF1010EA6FB04234FF00002E6FB0E322D
:103BC000A2FB03464FF00004B61954F10004E2FBD7
:103BD0000264A1FB06E6A4FB07E816EB08064FF01B
:103BE000000858F10008E4FB01687642C8F140582B
:103BF00038BFA8F10108A2FB06E4A3FB08E52D19D4
:103C00004FF0000454F10004E2FB0854A1FB05E668
:103C1000A7FB04E818EB06084FF0000656F1000673
:103C2000E1FB048618F1200556F10006A809A8F169
:103C30001B08B10908F03F08B8F10A0F40EA866096
:103C40001CD901EB0C51BDE8F08100BFFCF5EEE89A
:103C5000E2DDD8D3CFCBC7C3C0BDB9B6B4B1AEAC2B
:103C6000A9A7A5A3A19F9D9B9A9896959392908FA3
:103C70008D8C8B898887868584838281A0FB0068F0
:103C800000FB01F208EB4208B8EB872807D534188F
:103C900058EB0104D5D5401C51F10001D1E7341A8D
:103CA00078EB0104CDD4401E71F10001C9E75FEA51
:103CB0004C0C5FEA9C5C0DD105D34FF0000001F085
:103CC0000041BDE8F081BDE8F04170B5FFF7C4FEEA
:103CD0006DDBFFBEBDE8F0414FF0000000497047CA
:103CE0000000F87F10B591EA030F48BF83F000434E
:103CF0003FF538AB841A71EB030C07D212198CF024
:103D0000004C43EB0C03001B61EB0C01DFF8A4E15A
:103D10004FEA1154A4EB135C1EEA430F18BF9EEA4E
:103D2000445F00F0B08023EA6E03524221EA04515E
:103D3000C3EB6E0338BF5B1EDCF1200E25D322FAE5
:103D40000CFE10EB0E0043FA0CFE41EB0E01CCF121
:103D5000200E03FA0EFE10EB0E0051F10001CCF123
:103D6000200E29D412FA0EF201EB0451BDE81040E6
:103D700058BF7047401C1CBFB2F1004F704700286D
:103D80000CBF491C20F00100704712EB020E43EB00
:103D9000030218BF4FF0010E4EEA4202ACF1200CB4
:103DA000DCF11E0E54D943FA0CFE10EB0E0051F15B
:103DB000FF31CCF11E0ED5D50EF1010E12FA0EFE1A
:103DC000404141EB010101EB445C5FEA5C5C10D9CE
:103DD00010EBDE7001EB045138BFBEF1004FBDE8BF
:103DE000104018BF704700280CBF491C20F001008C
:103DF000704730D24FEAD42C11F5001124F400643E
:103E00001BD0B1FA81F20B3AA41AA41ED2F12003FE
:103E1000914030FA03F31943904001EBCC71002C30
:103E200001EB0451BDE81040A8BF704701F1C0414B
:103E30004FF0000001F000417047B0FA80F310FA33
:103E400003F100D110BDE41A173C4805C90AE4E7A4
:103E500001EB045110BD491001EB0451BDE81040C5
:103E60004FEA300002E04FF0000170474A0008BFFF
:103E70000042F8D0B2F5001F28BF704701F00041A2
:103E80004FF0000070479EEA445F07D011EA5E0FD2
:103E9000BDE8104004BF002100207047BDE810407D
:103EA00070B5FFF7D9FD00BF40DFF63E83F000415B
:103EB000104670470000E0FF43004FEAD30C4FEA82
:103EC0003C0C43401FBF40070CF1605113F0FE4F04
:103ED00070471CF0006F03D100200CF000417047C8
:103EE0000CF0004343EA507010B540EACC0000F0FB
:103EF00028FA00BF000000924FEA0001FFF7FABD68
:103F00004FF000414FF00000A1F500217047000084
:103F100090EA010F48BF81F0004100F19682421AF9
:103F20003CBF801A89184FEAD0524FF07F4C1CEAF0
:103F3000410FA2EBD15318BF9CEA026F00F03B8007
:103F40004FF0004C4CEA00204CEA012121FA03FC1E
:103F500010EB0C0C1ED202F1FF325FEA1C2040EB8A
:103F6000C25038BF70471CF07F0F4FEA400C18BF9B
:103F7000BCF17F4F38BF7047C3F12003994008BFA1
:103F800020F00100BCF17F4F38BF7047A0F1C04066
:103F900000F01DBA4FEA3C00000A40EBC25028BFB7
:103FA0001CF0FF0F4FEA400CE6D018BFBCF17F4F6A
:103FB00038BF7047EAE79CEA026F05D010EA5C0F51
:103FC00008BF00F00040704710B500F0BAF900BF1C
:103FD00064FBBE3E401058BFC0F14040491058BF7E
:103FE000C1F140418142EFF3008070474FF47F0CF4
:103FF0001CEAD0121EBF1CEAD11392EA0C0F93EAFE
:104000000C0F00F0858090EA010F48BF42F48072E7
:1040100040F4000C41F400002CF07F4120F07F4080
:1040200000B58142A2EB03020FF2081CACEB504E2C
:10403000C0F100009EF800E04FEA4E0E00FB0EFCBF
:1040400038BF49004FEA2C1C02F5FA020CFB0EF3B4
:104050004FEACE1E4FEA112C4FEAC1210EEB635EF0
:1040600042EB22420EFB0CFC4FEA1C5300FB0311F7
:104070004FEA112C4FEA01310EFB0CFC4FEADC4CED
:1040800000FB0C11C14228BF09184CEB03335DF84B
:1040900004EB10EB410143EBC250B2F57C0F38BF8B
:1040A000704729D512F0F00F1CBF00F1C04000F09E
:1040B00000407047008182838485868788898B8C45
:1040C0008D8E8F919293959697999A9C9D9FA0A281
:1040D000A3A5A7A8AAACAEB0B2B3B5B7B9BCBEC0D1
:1040E000C2C5C7C9CCCED1D4D7D9DCDFE2E6E9EC72
:1040F000F0F3F7FAFE0000004FEA400C0CF1807C70
:10410000BCF17E4F28BF7047B0F1C04000F05FB9EE
:1041100090EA010F0CEAD11348BF42F48072624565
:1041200038BF634507D213F47F0F16D080EA010031
:1041300000F00040704710B500F003F9097EFC3E26
:1041400000F005B880EA010000F00040704780EA06
:10415000010000F0004000F03AB912F47F0F04BFF4
:104160000248704780EA010000F031B90000C07FCA
:10417000C10DD1F19E0206DB4FEA002343F000435C
:1041800023FA02F07047004207D54FEA4001B1F12F
:10419000FE4F02D24FF00000704710B500F0D1F88A
:1041A00049922480002070476FEA20007047000089
:1041B000B0FA80F310FA03F2C3F19D030AD0D905D7
:1041C00001EB1220530638BF704700F1010008BF11
:1041D00020F001007047000050EA010C00F113804C
:1041E0001CF5000F58BFBCF5000F01D48842704782
:1041F00007D710F5000F58BF11F5000F15D48842EE
:104200007047894270471CF5000F04D5BCF5000FBC
:10421000F7D5814270474FF0807C1CEB400F38BFD0
:104220001CEB410F01D28142704710B500F089F8B4
:10423000922449004FF000504FF08051FFF7CABE62
:104240004FF47F0C1CEAD0121EBF1CEAD11392EA75
:104250000C0F93EA0C0F00F0478090EA010F48BF63
:1042600042F480724FF0004C4CEA00204CEA0121ED
:1042700002EB0302A0FB0113A2F50002002918BF04
:1042800043F001035B0028BF4FEA330342EB2242B5
:104290005FEA132C4CEBC2502EBFBCEB436FB2F560
:1042A0007C0F70474FEA036CBCF1004F08BF20F051
:1042B0000100B2F57C0F38BF70470BD582F0FF02CA
:1042C00012F5803FC8BF704700F1C040D8BF00F072
:1042D0000040704700F5000C5FEA4C0C48BF704787
:1042E000B0F1C04000F073B890EA010F0CEAD113AE
:1042F00048BF42F48072624538BF634504D280EA09
:10430000010000F00040704710B500F01AF800BF3F
:104310008900013E00F007B800F009B85FEA410CDF
:104320005FEA1C6C08D080EA010000F050B85FEA38
:10433000400C5FEA1C6CF6D14FF00040A0F5800005
:1043400070470EF1020E2EF0030E5EF8044B24426D
:1043500004D44FEA4102B2F17F4F11D84FEA400333
:10436000B3F17F4F0CD80ED14FEAD07CB2F17F4F22
:104370000CEB4C0C0CF1020C08BF4CEBD17C04E0B4
:104380004FF0080C01E04FEAD17C0CEB4C0324FA0F
:1043900003F404F00704B4F1040C06D20EEB840C11
:1043A000BDE810404CF0010C6047DFE80CF0070856
:1043B00002024FF00040A0F5800010BD0846420008
:1043C00018BFD2F1807288BF00F0004010BDFF21FD
:1043D00041EAD050C005704751EA000C00F113804B
:1043E0001CF5000F58BFBCF5000F01D48142704787
:1043F00007D711F5000F58BF10F5000F15D48142F3
:104400007047894270471CF5000F04D5BCF5000FBA
:10441000F7D5884270474FF0807C1CEB410F38BFC6
:104420001CEB400F01D28842704780EA010081EA0C
:10443000000180EA0100FFF7F8BE000090EA010FDA
:1044400048BF81F000413FF56AAD421A04D882F0BE
:104450000042A0EB020011444FEAD0524FF07F4CD3
:104460001CEA410FA2EBD15318BF9CEA026F4AD05D
:104470004FF0004C4CEA00204CEA012121FA03FCE9
:10448000B0EB0C0C0FD412F0FE0F36D05FEA4C00EC
:104490001DD5001240EBC25038BF70471CF03F0FD3
:1044A00018BF70470BE0A2F101025FEA1C2040EB4D
:1044B000C25038BF70471CF07F0F18BF7047C3F160
:1044C0002003994014BF401E20F00100704780086F
:1044D0004FEA122308BF7047B0FA80FCA2EB0C022F
:1044E000CCF1280C60FA0CF093EA122F04BF00EB19
:1044F000C25070474FEAC3707047130A5FEADC107E
:1045000008BF7047F6E79CEA026F04D010EA5C0F20
:1045100008BF0020704710B5FFF713FF40DFF63EDD
:1045200081F0004070470CF00F03092B08BF0820F2
:1045300000F059800A2B0BD0082B18BF704708BF1A
:104540001CF0400F0AD04FF000004FF00001704700
:104550001CF0400F18BF4FF0004070471CF0100FC8
:1045600008D020F0704300F07F4242EAD3014FEAC6
:104570004370704700F0604021F07F4242EA000241
:1045800001F07F4040EA727070474FF0FF0C4CF42E
:10459000E06C1CEA11531CBF9CEA030C9445C2BF9B
:1045A000DA4201EB02517047002B0DD0BCF1000F35
:1045B0000FD0002A01F00041A4BF41F0E04141F0DA
:1045C0007F614FF00000704701F000414FF00000A4
:1045D000704750EA01334FF09B0C18BF4CF0806CD1
:1045E0007EF460AF70471CF4801F11D01CF4E02FE4
:1045F00003D06FEACC31490070474FF04050EFF3E1
:10460000008222F0704242EA000282F30088704782
:104610004FF00000704700004C5555555555A53FCB
:104620007751C1166CC156BF9015CB19A001FA3E47
:10463000AD529C804F7E92BEC4B1B4BD9EEE213E71
:10464000D43888BEE9FAA8BD00004054FB21F93FE8
:104650003163621A61B4D03D0000601A61B4D03D8C
:104660007370032E8A19A33B0000002E8A19A33B06
:10467000C14920259A837B3900000000000000001A
:104680006E83F9A22915444ED15727FCC0DD34F5BD
:10469000999562DB4190433CAB6351FE61C5BBDE43
:1046A0003A6E24B7E0D24D42EA2E49061C92D10957
:1046B0001CEB1DFE3EA729B1F53582E88444BB2ED4
:1046C00026709CE9417E5FB439D69139F439538321
:1046D0008B5F849C3B28F9BDFF97F81F0F9805DE80
:1046E0008B112FEF1F6D0A5ACF7E366DB709CB277E
:1046F000663F464F2DEA5F9EC7BA27757BF1E5EB13
:10470000F739073DEA92528AB15FFB6B085D8D1F56
:10471000A6F810111111813FD561C119A0012ABF5E
:104720007DFEB157E31DC73EEB9C2B8AE6E55ABEE2
:104730007CD5CF5A3AD9E53D584700080000002003
:10474000B4000000280100080C480008B400002054
:10475000EC09000044010008000000000000000017
:104760000000000001010000000000000000000047
:104770000000000000000000000000000000000039
:104780000000000000000000000000000000000029
:104790000000000000000000000000000000000019
:1047A0000000000000000000000000000000000009
:1047B000000000000000000000000000E4CB964074
:1047C00000000000000000000000000000000000E9
:1047D000009A019A029A039A049A059A069A00008E
:1047E000000000000000000000001D3B5C7D9E1DDD
:1047F0003B5C7D9E000000000000010203040102FA
:0C48000003040607080902040608000073
:04000005080000ED02
:00000001FF
