:020000040800F2
:10000000F80C0020C9010008953D000835300008B3
:10001000293D0008DD160008155900080000000001
:10002000000000000000000000000000A5490008DA
:1000300011230008000000001D430008E101000832
:10004000E3010008E3010008E3010008E301000800
:10005000E3010008E3010008E3010008E3010008F0
:10006000E3010008E3010008E3010008E3010008E0
:10007000E3010008E3010008E3010008E3010008D0
:10008000E3010008E3010008E3010008E3010008C0
:10009000E3010008E3010008E3010008E3010008B0
:1000A000E3010008E3010008E3010008E3010008A0
:1000B000E3010008814B0008E3010008E3010008A8
:1000C000E3010008E3010008E3010008E301000880
:1000D000E3010008AD540008E301000835550008AD
:1000E0000D2A0008E3010008E301000800F002F80F
:1000F00000F05AF80AA090E8000C82448344AAF168
:100100000107DA4501D100F04FF8AFF2090EBAE865
:100110000F0013F0010F18BFFB1A43F0010318473B
:10012000E07F0000008000000A444FF0000C10F84F
:10013000013B13F0070408BF10F8014B1D1108BF65
:1001400010F8015B641E05D010F8016B641E01F805
:10015000016BF9D113F0080F1EBF10F8014BAD1C55
:100160000C1B09D16D1E58BF01F801CBFAD505E073
:1001700014F8016B01F8016B6D1EF9D59142D6D3CD
:10018000704700000023002400250026103A28BFF5
:1001900078C1FBD8520728BF30C148BF0B607047F9
:1001A0001FB51FBD10B510BD00F044F81146FFF794
:1001B000F7FF06F0E7FB00F062F803B4FFF7F2FF89
:1001C00003BC00F063F80000094880470948004775
:1001D000FEE7FEE7FEE7FEE7FEE7FEE7FEE7FEE7F7
:1001E000FEE7FEE704480549054A064B7047000054
:1001F000214B0008ED000008F8060020F80C002054
:10020000F8080020F808002070477047704710B5C4
:1002100000F008F8006810BD10B5044600F002F8C0
:10022000046010BD004870479806002000487047E1
:10023000980600207546FFF7F9FFAE4605006946AF
:10024000534620F00700854618B020B5FFF7CAFFD7
:10025000BDE820404FF000064FF000074FF00008C7
:100260004FF0000B21F00701AC46ACE8C009ACE848
:10027000C009ACE8C009ACE8C0098D467047044627
:10028000AFF300802046FFF798FF000001491820D7
:10029000ABBEFEE726000200704700002DE9F047E4
:1002A00005460C46B5F90010B4F90020881A07F08D
:1002B000C7FB814625480168484607F021FC0746F0
:1002C000B4F9000007F0BCFB8046394607F018FA85
:1002D000064607F079FB00B22080B5F90210B4F9A8
:1002E0000220881A07F0ACFB81461848016848468E
:1002F00007F006FC0746B4F9020007F0A1FB8046B0
:10030000394607F0FDF9064607F05EFB00B2608053
:10031000B5F90410B4F90420881A07F091FB81465E
:100320000A480168484607F0EBFB0746B4F90400A9
:1003300007F086FB8046394607F0E2F9064607F0EB
:1003400043FB00B2A080BDE8F08700003C00002025
:1003500008B50121084604F019F801214FF4027094
:1003600004F044F84FF4004004F004F80220ADF823
:10037000000000208DF803006946024802F05EFC90
:1003800008BD0000000C014010B5FFF7E1FF00F0D0
:1003900001F810BD00B591B0384801F0F5FE3848BD
:1003A000069038480790002008900220099000200D
:1003B0000A9080200B9040000C9080000D9020202F
:1003C0000E9000020F900020109006A92B4801F01B
:1003D00081FF0121294801F0CBFE29484C3800F06B
:1003E00069F8012000F042F90020019001208DF809
:1003F00008008DF809004FF460200390002004905D
:1004000002208DF8140001A91D484C3800F094F822
:100410000723012209211A484C3800F0B5F80723B8
:100420000222112116484C3800F0AEF80121144880
:100430004C3800F034F8012111484C3800F024F811
:100440000F484C3800F0FCF800BF0D484C3800F065
:1004500069F80028F9D10A484C3800F001F900BFCA
:1004600007484C3800F054F80028F9D1012104481D
:100470004C3800F0EAF811B000BD0000080002405E
:100480004C240140CA00002021B1826842F00102E0
:10049000826003E0826822F001028260704721B12D
:1004A000826842F48072826003E0826822F4807283
:1004B0008260704710B504461248844208D1012179
:1004C000401503F0A3FF0021601503F09FFF17E024
:1004D0000D48844208D10121001503F097FF002147
:1004E000201503F093FF0BE00848844208D1012156
:1004F000C80303F08BFF00214FF4004003F086FF98
:1005000010BD00000024014000280140003C0140D3
:10051000014600208A6812F0040F01D0012000E09B
:1005200000207047014600208A6812F0080F01D0B1
:10053000012000E00020704730B502460020002373
:1005400050680F4C20400D790C6844EA0524204384
:10055000506090680B4C2040D1E902542C434D79F7
:1005600044EA450420439060D06A20F470000C7C7B
:10057000641EE4B2234340EA0350D06230BD000061
:10058000FFFEF0FFFDF7F1FFF0B504460D46002039
:100590000021092D11DDE068A5F10A0606EB4607EA
:1005A000072606FA07F18843A5F10A0606EB460678
:1005B00003FA06F10843E0600CE0206905EB45070B
:1005C000072606FA07F1884305EB450603FA06F10C
:1005D00008432061072A0FDA606B561E06EB860778
:1005E0001F2606FA07F18843561E06EB860605FA13
:1005F00006F10843606322E00D2A0FDA206BD61F54
:1006000006EB86071F2606FA07F18843D61F06EB7E
:10061000860605FA06F10843206310E0E06AA2F1BD
:100620000D0606EB86071F2606FA07F18843A2F19E
:100630000D0606EB860605FA06F10843E062F0BDFA
:10064000816841F008018160704721B1826842F4FD
:10065000A002826003E0826822F4A00282607047F8
:10066000816841F0040181607047000030B10749A2
:10067000096841F40001054A116005E00349096871
:1006800021F40001014A1160704700000824014074
:1006900070B586B063480078002847D0624800787B
:1006A000401C6149087008460078012802D00228E1
:1006B0003BD119E05D48C06A5C49896A5B4A526A6D
:1006C0005A4B1B6ACDE90232CDE904105748C06984
:1006D00056498969CDE90010544843690269C168E7
:1006E000012000F0C3FB20E05048006D4F49C96C69
:1006F0004E4A926C4D4B5B6CCDE90232CDE9041051
:100700004A48006C4949C96BCDE900104748836BE2
:10071000426B016B022000F0A9FB002042490870E7
:100720004049087003F0B2F800BF78E03E48007816
:10073000401C3D4908700846007807286ED2DFE863
:1007400000F06D04223B505F67003949394800686A
:1007500007F0D6F9064607F037F904463648006830
:1007600080F000453548007808B9012000E00020FD
:100770000021314ACDE900109168234650682A468D
:1007800000F044FE4AE000212D48B0F90400CDE914
:10079000010103912A480491B0F90200284C00900D
:1007A000B4F90030274CB4F90420B4F90210B4F9BC
:1007B000000000F05DFD31E0002323488089CDE991
:1007C000020304932048059340891F4909891E4C60
:1007D000CDE90010A388E2886188208800F096FCAB
:1007E0001CE00020009001900290184C0390238898
:1007F0004FF08044A28F218FA08E00F0A1FA0DE06F
:10080000114A118A124A128890B200F035FC05E0B4
:1008100000F0A0FE00200449087000BF00BF06B031
:1008200070BD00005D0000205C000020440200203C
:100830000000204108010020C404002048000020DE
:10084000AE000020A8000020B004002040000040BE
:10085000CE0000202DE9F05F04460D460026B1468B
:1008600007E014F809003044C6B209F1010000F0B5
:10087000FF09681E4845F4DC601910F8010CB0420D
:1008800001D0BDE8F09F2078AA2802D16078AF2877
:1008900000D0F6E7A07801281AD12079012804D1E8
:1008A00001F046FD02F0F2FF12E02079022804D1A7
:1008B00001F04AFD02F0EAFF0AE02079042807D19E
:1008C00001F036FD01F040FD01F04AFD02F0DEFFCF
:1008D000A078022818D12079012804D1F4490870A1
:1008E0000020F44908702079022801D102F0CEFFDF
:1008F0002079A02801D102F0C9FF2079A12803D1D5
:1009000003F09CFC02F0C2FFA07803284FD12079AD
:10091000617941EA0020E8490880A079E17941EA5B
:100920000020E5494880207A617A41EA0020E249C6
:10093000C880A07AE17A41EA0020DF498880207BE4
:10094000617B41EA0020DC490881A07BE17B41EA30
:100950000020D9494881207C617C41EA0020D649A9
:100960008881A07CE17C41EA0020D349C881084607
:10097000C089D2490988884208D0D148007828B176
:10098000CD48C089CD49088002F080FF207D617D7F
:1009900041EA0020C8490882A07DE17D41EA0020AB
:1009A000C5494882084603F095FE03F0ABFDA078E8
:1009B00010287CD12179090209B2627941EA02004A
:1009C00006F06DFB8246BF4ABF4B06F093FB07461D
:1009D00006F0CEF8BD490860BD490860BD49C86051
:1009E000A179090209B2E27941EA020006F057FB57
:1009F0000746B44AB44B06F07DFB824606F0B8F8D1
:100A0000B2494860B2494860B2490861217A090296
:100A100009B2627A41EA020006F041FB0746A94AA0
:100A2000A94B06F067FB824606F0A2F8A74988604A
:100A3000A7498860A7494861A17A090209B2E27A08
:100A400041EA020006F02BFB82469E4A9E4B06F0CE
:100A500051FB074606F08CF89F4908609F490860E3
:100A60009C498861217B090209B2627B41EA02004C
:100A700006F015FB8246934A934B06F03BFB074674
:100A800006F076F894494860944948609149C861F5
:100A9000A17B090209B2E27B41EA020006F0FFFAFB
:100AA0008246884A884B06F025FB074600E049E06D
:100AB00006F05EF888498860884988608549086240
:100AC000217C090209B2627C41EA020006F0E7FAE1
:100AD00082467C4A7C4B06F00DFB074606F048F840
:100AE0007F4908607B494862A17C090209B2E27C27
:100AF00041EA020006F0D3FA8246724A724B06F0CF
:100B0000F9FA074606F034F8754948607149886279
:100B1000217D090209B2627D41EA020006F0BFFAB6
:100B20000746684A684B06F0E5FA824606F020F868
:100B30006B4988606749C862A078314600F0D4F8F4
:100B400002F0A4FEA07811287DD12179090209B212
:100B5000627941EA020006F0A2FA0746594A5A4B66
:100B600006F0C8FA824606F003F85E490860594963
:100B70000863A179090209B2E27941EA020006F0AC
:100B80008EFA07464F4A504B06F0B4FA824605F0FB
:100B9000EFFF544948604F494863217A090209B27E
:100BA000627A41EA020006F07AFA8246454A464BEA
:100BB00006F0A0FA074605F0DBFF4A498860454980
:100BC0008863A17A090209B2E27A41EA020006F0DA
:100BD00066FA07463B4A3C4B06F08CFA824605F023
:100BE000C7FF3C49C863217B090209B2627B41EA25
:100BF000020006F054FA0746324A334B06F07AFAFE
:100C0000824605F0B5FF33490864A17B090209B2A9
:100C1000E27B41EA020006F042FA8246294A2A4B68
:100C200006F068FA074605F0A3FF2A494864217CCC
:100C3000090209B2627C41EA020006F030FA074676
:100C4000204A214B00E030E006F054FA824605F0DD
:100C50008FFF20498864A17C090209B2E27C41EA45
:100C6000020006F01CFA0746164A174B06F042FA35
:100C7000824605F07DFF1749C864217D090209B24B
:100C8000627D41EA020006F00AFA07460D4A0E4B61
:100C900006F030FA824605F06BFF0E490865A07831
:100CA000314600F021F802F0F1FD00BFE9E5000057
:100CB0005D0000205C000020B004002062000020E5
:100CC00048000020FCA9F1D24D62503FD004002022
:100CD000E404002044020020F80400200C05002059
:100CE00020050020340500202DE9F04105460E4680
:100CF0000027AA200D4908704870EF208870022054
:100D0000C870084605714671002405E00748005D7B
:100D10003844C7B2601CC4B2062CF7DB03488771A5
:100D2000072100F005F8BDE8F08100002202002054
:100D300070B504460D462021204603F04BF970BDE6
:100D40007FB500240026AA222146641C464842544E
:100D50002146641C425406222146641C425400224F
:100D60002146641C42549DF801202146641C4254D3
:100D70009DF800202146641C42549DF80520214620
:100D8000641C42549DF804202046611CCCB23649B4
:100D90000A549DF809202046611CCCB232490A54FD
:100DA0009DF808202046611CCCB22F490A549DF8BA
:100DB0000D202046611CCCB22B490A549DF80C2012
:100DC0002046611CCCB228490A549DF821202046B7
:100DD000611CCCB224490A549DF820202046611C95
:100DE000CCB221490A549DF825202046611CCCB282
:100DF0001D490A549DF824202046611CCCB21A4992
:100E00000A549DF829202046611CCCB216490A5488
:100E10009DF828202046611CCCB213490A549DF845
:100E20002D202046611CCCB20F490A549DF82C207D
:100E30002046611CCCB20C490A54201FC870002502
:100E400005E00948405D3044C6B2681CC5B2A54201
:100E5000F7DB2046611CCCB203490E542146024800
:100E6000FFF766FF7FBD0000220200202DE9FC5F36
:100E700006460F4690469946DDF830B00024A2465B
:100E8000AA222146641C7A4842542146641C4254DA
:100E900006F10F00C2B22146641C7548425400227C
:100EA0002146641C42547349384606F029FE0090DE
:100EB00006F08AFD00B201909DF805202146641CD1
:100EC0006B4842549DF804202146641C42546949F1
:100ED000404606F015FE009006F076FD00B2019047
:100EE0009DF805202146641C614842549DF8042069
:100EF0002046611CCCB25E490A545E49484606F061
:100F0000FFFD009006F060FD00B201909DF8052005
:100F10002046611CCCB256490A549DF80420204654
:100F2000611CCCB252490A545249584606F0E8FDB9
:100F3000009006F049FD00B201909DF80520204682
:100F4000611CCCB24A490A549DF804202046611C19
:100F5000CCB247490A5447490D9806F0D1FD00909C
:100F600006F032FD00B201909DF805202046611C7C
:100F7000CCB23F490A549DF804202046611CCCB2F3
:100F80003B490A543B490E9806F0BAFD009006F022
:100F90001BFD00B201909DF805202046611CCCB2DB
:100FA00033490A549DF804202046611CCCB23049D4
:100FB0000A5430490F9806F0A3FD009006F004FD96
:100FC00000B201909DF805202046611CCCB2284952
:100FD0000A549DF804202046611CCCB224490A54CE
:100FE0002449109806F08CFD009006F0EDFC00B24C
:100FF00001909DF805202046611CCCB21C490A5482
:101000009DF804202046611CCCB219490A541949A4
:10101000119806F075FD009006F0D6FC00B2019024
:101020009DF805202046611CCCB211490A549DF858
:1010300004202046611CCCB20D490A54201FC87000
:10104000002506E00A48405D504400F0FF0A681C95
:10105000C5B2A542F6DB2046611CCCB2044901F8BA
:1010600000A021460248FFF763FEBDE8FC9F000098
:101070002202002000007A442DE9F84306460F467C
:101080000024A046AA222146641C1F48425421463F
:10109000641C425405222146641C4254002221460D
:1010A000641C425400969DF801202146641C425461
:1010B0009DF800202146641C425400979DF80120B1
:1010C0002146641C42549DF800202046611CCCB28D
:1010D0000D490A54201FC870002506E00A48405DEB
:1010E000404400F0FF08681CC5B2A542F6DB20466C
:1010F000611CCCB2044901F8008021460248FFF788
:1011000017FEBDE8F8830000220200207FB500240E
:101110000026AA222146641C544842542146641CDD
:10112000425403222146641C425400222146641C7E
:1011300042549DF801202146641C42549DF8002031
:101140002146641C42549DF805202146641C4254EB
:101150009DF804202046611CCCB244490A549DF8F5
:1011600009202146601CC4B2404842549DF8082022
:101170002046611CCCB23D490A549DF80D20204602
:10118000611CCCB239490A549DF80C202046611CE0
:10119000CCB236490A549DF821202046611CCCB2BD
:1011A00032490A549DF820202046611CCCB22F49B8
:1011B0000A549DF825202146601CC4B22B48425495
:1011C0009DF824202046611CCCB228490A549DF881
:1011D00029202046611CCCB224490A549DF82820BD
:1011E0002146601CC4B2214842549DF82D2020465F
:1011F000611CCCB21D490A549DF82C202046611C6C
:10120000CCB21A490A549DF831202046611CCCB258
:1012100016490A549DF830202046611CCCB213496F
:101220000A549DF835202046611CCCB20F490A545F
:101230009DF834202046611CCCB20C490A54201F72
:10124000C870002505E00948405D3044C6B2681CFE
:10125000C5B2A542F7DB2046611CCCB203490E544F
:1012600021460248FFF764FD7FBD000022020020F6
:101270002DE9F84F06460F4690469946DDF828B00E
:101280000024A246AA222146641C5F4842542146FB
:10129000641C425402222146641C4254002221460E
:1012A000641C425400969DF801202146641C42545F
:1012B0009DF800202146641C425400979DF80120AF
:1012C0002146641C42549DF800202046611CCCB28B
:1012D0004D490A54CDF800809DF801202046611C3C
:1012E000CCB249490A549DF800202046611CCCB27A
:1012F00045490A54CDF800909DF801202046611C14
:10130000CCB241490A549DF800202046611CCCB261
:101310003D490A54CDF800B09DF801202046611CDB
:10132000CCB239490A549DF800202046611CCCB249
:1013300035490A540B9800909DF801202046611C05
:10134000CCB231490A549DF800202046611CCCB231
:101350002D490A540C9800909DF801202046611CEC
:10136000CCB229490A549DF800202046611CCCB219
:1013700025490A540D9800909DF801202046611CD3
:10138000CCB221490A549DF800202046611CCCB201
:101390001D490A540E9800909DF801202046611CBA
:1013A000CCB219490A549DF800202046611CCCB2E9
:1013B00015490A54002000909DF801202046611C28
:1013C000CCB211490A549DF800202046611CCCB2D1
:1013D0000D490A54201FC870002506E00A48405DE8
:1013E000504400F0FF0A681CC5B2A542F6DB204657
:1013F000611CCCB2044901F800A021460248FFF765
:1014000097FCBDE8F88F0000220200202DE9FE4F76
:1014100082460E4617469846DDF830B00024A146B5
:10142000CDF80480AA222146641C48484254214633
:10143000641C425401222146641C4254002221466D
:10144000641C42544249304606F05AFB009006F0B4
:10145000BBFA00B202909DF809202146641C3B486B
:1014600042549DF808202146641C42543849504695
:1014700006F046FB009006F0A7FA00B202909DF835
:1014800009202146641C314842549DF80820214619
:10149000601CC4B22D4842542D49384606F030FB3A
:1014A000009006F091FA00B202909DF809202046C3
:1014B000611CCCB225490A549DF808202146601CC5
:1014C000C4B2224842549DF807202046611CCCB289
:1014D0001E490A549DF806202046611CCCB21B49C7
:1014E0000A549DF805202046611CCCB217490A54C5
:1014F0009DF804202146601CC4B214484254204682
:10150000611CCCB2114901F800B02146621CD4B272
:101510000E4A0D985054201F1146C870002506E051
:101520000A48405D484400F0FF09681CC5B2A54266
:10153000F6DB2046611CCCB2044901F8009021463C
:101540000248FFF7F5FBBDE8FE8F000022020020F5
:101550000000C84270B500240026AA222146641C5F
:10156000174842542146641C4254F1222146641C0F
:10157000425400222146641C4254124802782146FB
:10158000641C0F484254104802782146641C0C48E1
:101590004254201F0A49C870002505E00848405DF4
:1015A0003044C6B2681CC5B2A542F7DB2046611CB8
:1015B000CCB203490E5421460148FFF7B9FB70BD78
:1015C00022020020420000201601002010B502F087
:1015D00083F902F0B5F94FF4E13004F003F94FF468
:1015E000165004F04BF94FF47A7003F02DFF02F01F
:1015F000E3FD12A002F0B2FE02F098FBFEF7C4FE7B
:1016000003F0E8F80221232002F042FC02F0D0FBB4
:1016100001F012FD00BF02F0E9F80128FBD10E49EC
:101620000E4800F05DF801F0C9FA00F09FFE02F0EC
:1016300005FE01200A49087010BD00000D0A205265
:101640006167696E67466972655F466C79205633DB
:101650002E35200D0A000000000020416F12833A51
:10166000400000202DE9F14F82B017480168029830
:1016700006F046F81449086014491348006806F05B
:101680000BFB02D80020104908600F48006806F0E4
:101690000BF8CDE9000105F0EDF9804600220C4B76
:1016A00005F098FA064600224FF0804305F042FB11
:1016B00004460022074B05F01DFD824605F0C2FCE2
:1016C00005490880BDE8FE8F64000020DB0FC9409B
:1016D0000000F03F003C9F403408004000BFFEE7A0
:1016E0002DE9F04104460D4629460B4806F008FA5C
:1016F000804641464FF07E5006F070F8074621467E
:1017000005F0FEFF06463146204606F067F803491D
:101710000860BDE8F0810000DB0FC9403C000020FC
:101720002DE9F04704460D46A988A1F2DC5006F0E9
:1017300087F907466C4906F051F80646616805F0DE
:10174000DFFF6A494860E988A1F2DC5006F078F9C9
:101750000746654906F042F80646A16806F0CDFA4C
:10176000624988604868624906F096FA07D2614982
:10177000C8685F4905F0C4FF5E49C86015E05B4971
:1017800048685D4906F088F907D25A49C8685A493D
:1017900005F0B6FF5749C86007E0544A5168554AFA
:1017A000D06805F0ADFF5349C8605049886850497A
:1017B00006F072FA07D25149C8684D4905F0A0FFFA
:1017C0004E49C86015E0494988684B4906F064F9FC
:1017D00007D24A49C868484905F092FF4749C8609E
:1017E00007E0424A9168454AD06805F089FF4349BD
:1017F000C8604049C868424906F04EFA02D24048E3
:101800003C49C8603B49C8683E4906F045F902D2E8
:101810003C483849C8603949C868394906F03CFA3B
:1018200002D237483549C8603449C868354906F09E
:1018300033F902D233483149C8603348007820B9BF
:1018400000202C49C8602D49C860304A5168274A99
:10185000506806F05DFA804626488168404606F0EA
:101860004FF90646234AD168506806F049F9804688
:101870001E4A51681F4A106806F042F981464146E7
:1018800005F03EFF0746314605F03AFF1949086169
:101890001E4A9168154A906806F03AFA8046174841
:1018A0008168404606F02CF90646144AD168506813
:1018B00006F026F980460D4A9168104A106806F035
:1018C0001FF98146414605F01BFF0746314605F0EA
:1018D00017FF0A490861054840680C4948600348F9
:1018E00080688860BDE8F08700004842D801002089
:1018F00000002041E4040020000020C1D0040020AA
:1019000000007A4400007AC449000020C001002091
:1019100007B58CB00C984068F949049006F0F0F8CF
:101920000690F848006980F000400590069906F09E
:10193000EFF9F54948600C980068F149059006F008
:10194000DFF80690F148006901460590069806F018
:10195000D4F9ED4988600D98807B10F0010F0AD012
:101960000C98806880F00040E549069006F0C8F8C1
:10197000E549086018E00C988068E149049006F099
:10198000BFF806900D98408840F2DC51081A039089
:1019900006F056F8DE49049005F020FF0590069900
:1019A00006F0B6F9D8490860D7484068D84906908B
:1019B00006F072F908D2D748C068D549069005F0FC
:1019C0009FFED449C8601AE0CF484068D2490690CB
:1019D00006F062F808D2CF48C068CF49069005F0FB
:1019E0008FFECC49C8600AE0C74840680690C948E5
:1019F000C0680590069905F083FEC649C860C248D4
:101A00008068C349069006F047F908D2C348C06809
:101A1000BF49069005F074FEC049C8601AE0BA4894
:101A20008068BD49069006F037F808D2BB48C06808
:101A3000B949069005F064FEB849C8600AE0B248AA
:101A400080680690B548C0680590069905F058FE74
:101A5000B249C860AC480068AD49069006F01CF970
:101A600007D2AF48C068AA49069005F049FEAC49C4
:101A7000C860A5480068A849069006F00DF808D28D
:101A8000A748C068A449069005F03AFEA449C8607A
:101A90000AE09D4800680690A148C0680590069934
:101AA00005F02EFE9E49C8609A48C0689D49069080
:101AB00006F0F2F802D29B489649C8609548C06883
:101AC0009949069005F0E8FF02D297489149C8600D
:101AD0009248C0689349069006F0DEF802D2914819
:101AE0008E49C8608D48C0688F49069005F0D4FFC4
:101AF00002D28D488949C8608948C06889490690E2
:101B000006F0CAF802D287488549C8608448C06890
:101B10008549069005F0C0FF02D283488049C8601D
:101B20008248007830B900207A49C8607B49C86093
:101B30007B49C8607E4840680390734840680290C3
:101B4000039906F0E5F80490724880680146039016
:101B5000049805F0D5FF06906E48C06802906D4865
:101B600040680190029905F0CBFF049066484068F8
:101B70000290684800680190029905F0C1FF039047
:101B8000049905F0BDFD0590069905F0B9FD614980
:101B900008616748806803905B48806802900399F9
:101BA00006F0B6F804905D488068014603900498FA
:101BB00005F0A6FF06905948C06802905748406853
:101BC0000190029905F09CFF04904F4880680290B4
:101BD000524800680190029905F092FF0390049921
:101BE00005F08EFD0590069905F08AFD4B490861C8
:101BF0004F4800680390444800680290039906F03B
:101C000087F804904648806801460390049805F0E0
:101C100077FF06904248C0680290414840680190B2
:101C2000029905F06DFF04903748006802903C4827
:101C300000680190029905F063FF0390049905F094
:101C40005FFD0590069905F05BFD354908612E485A
:101C50004068374948602C48806888602A48006896
:101C600008603448007880B30D980088069000F032
:101C700067F900B2304908800846B0F900006428CE
:101C800003DD01202949087002E00020274908707F
:101C90002A492B48006805F0FFFF12D2234800783C
:101CA00078B928480078401C264908700846007812
:101CB000642859DD0120244908700020214908705A
:101CC00052E000201F4908704EE0FFE70D98408960
:101CD000A0F2DC50049005F0B3FE1C49059005F01D
:101CE0000FFF069005F08CFE80B20B900D980088D7
:101CF000B0F5966F2CDD01200C4908702BE0000038
:101D0000E12E6542E4040020E4010020D00400201C
:101D1000000048420C050020000048C2F8040020E2
:101D20002005002000409C4500409CC54900002043
:101D3000CC0100204A000020540000200000204276
:101D4000040100204B000020480000203333333FC3
:101D50000020764908700D9801880B98081AA0F5A4
:101D60007A7000B2724908807148B0F9000000280A
:101D700002DA00206E4908806D48B0F90000B0F525
:101D8000487F03DB40F21F306949088067480078CC
:101D900000287CD00E98002879D16548B0F9000061
:101DA00005F04EFE039063480069014602900398D7
:101DB00005F0A6FC04906048006901460390049871
:101DC00005F09EFC05905D48006901460490059869
:101DD00005F09EFF069005F0F7FD00B20A9054480A
:101DE000B0F9000005F02CFE03905248006901464E
:101DF0000290039805F084FC04904F480069014666
:101E00000390049805F084FF05904C480069014652
:101E10000490059805F074FC069005F0D5FD00B21D
:101E200009904348B0F9000005F00AFE03904148CC
:101E3000006901460290039805F06AFF04903E484D
:101E4000006901460390049805F05AFC05903B4850
:101E5000006901460490059805F052FC069005F0D3
:101E6000B3FD00B208903248B0F9000005F0E8FD7B
:101E700003903048006901460290039805F048FF3E
:101E800004902D48006901460390049800E03FE06B
:101E900005F03EFF05902948006901460490059829
:101EA00005F036FF069005F08FFD00B207900A9806
:101EB000B0F57A7F02DB40F2E7300A900A980028FA
:101EC00001DA00200A900998B0F57A7F02DB40F22F
:101ED000E73009900998002801DA00200990089855
:101EE000B0F57A7F02DB40F2E730089008980028CE
:101EF00001DA002008900798B0F57A7F02DB40F203
:101F0000E73007900798002807DA0020079004E0E0
:101F100000200A90099008900790DDE90732DDE97A
:101F2000091001F02BFF0FB000BD00004900002098
:101F300054000020F80400200C050020200500209B
:101F40002DE9F047044677480078002816D0002095
:101F5000744908707448007888B940F2A4608442DB
:101F60000DDB72494989C1F5FA6101F6B83005F017
:101F700067FD6F49C8606F486F490860C1E0A4F20F
:101F8000DC5005F05DFD06466A4905F027FC054674
:101F900069480168284605F0B3FB674908600021DD
:101FA0006548006805F078FD02D8002062490860A5
:101FB00062496148006805F06FFE02D85F485E49DB
:101FC00008605F4801685C48006805F0A1FE584958
:101FD000086108695B4905F05FFD02D25948544920
:101FE000086153490869534905F056FE02D2514829
:101FF0004F4908614E490869534905F04DFE1BD20F
:1020000000215248006805F047FD15D84849086985
:102010004F4905F041FE07D84549C8684C4905F0CD
:102020006FFB4349C86028E0414A1169D06805F058
:1020300067FB3F49C86020E03D490869454905F014
:102040002BFD1AD200214148006805F025FE14D866
:1020500037490869404905F01FFD07D83449C86869
:102060003B4905F055FE3249C86006E0304A116927
:10207000D06805F045FB2E49C860384933480068F0
:1020800005F00AFD02D235483049086034492F482E
:10209000006805F001FE02D231482C490860002199
:1020A0002548006805F05CFC05D1214908692D49E7
:1020B00005F0F2FD03D92C480078012802D1002058
:1020C0001B49C8601A4988682049096805F018FD4D
:1020D0000746174AD168506805F012FD8046144A39
:1020E0001169106805F00CFD8146414605F008FBBA
:1020F0000646394605F00CFE054605F081FC1B49F5
:1021000008801A480088B0F5487F02DB4FF4487019
:1021100001E0164800881549088008460088BDE897
:10212000F08700001501002049000020B0040020C5
:10213000340500200000C842580000200000FA4486
:10214000040100200000C8C20000A04010010020CF
:102150000000F0410000A0C00000F0C1000040C03D
:1021600000004040000020C2480000204C00002039
:1021700021B1026842F00102026004E002684FF6F9
:10218000FE731A400260704701684FF6FE721140FC
:1021900001600021016041608160C1604B4988425B
:1021A00008D14A490839496841F00F01474A083ABD
:1021B00051608AE045491431884208D143490839C1
:1021C000496841F0F001414A083A51607DE03F49D9
:1021D0002831884208D13D490839496841F4706185
:1021E0003A4A083A516070E038493C31884208D197
:1021F00036490839496841F47041344A083A516017
:1022000063E032495031884208D130490839496881
:1022100041F470212D4A083A516056E02B4964314F
:10222000884208D129490839496841F47001274A90
:10223000083A516049E025497831884208D123495C
:102240000839496841F07061204A083A51603CE021
:102250001F49884206D1011F096841F00F01021F82
:10226000116032E01A491431884208D11849091F17
:10227000096841F0F001164A121F116025E0144967
:102280002831884208D11249091F096841F4706158
:102290000F4A121F116018E00D493C31884208D1E5
:1022A0000B49091F096841F47041094A121F116066
:1022B0000BE007495031884207D10549091F0968D9
:1022C00041F47021024A121F116070470800024059
:1022D0000804024010B50022026847F6F0739A43E2
:1022E0000C6A8B6823430C6923434C6923438C6934
:1022F0002343CC6923434C6A23438C6A23431A4308
:102300000260CB6843600B6883604B68C36010BD9C
:102310007047002109E0002201E0531C9AB242F20A
:1023200034139A42F9DB4B1C99B28142F3DB7047BC
:10233000012003490870002002490860704700002E
:10234000D1000020C40400200120034908700020AF
:102350000249086070470000D0000020C40400203B
:1023600001200149087070471801002010B500F0E5
:1023700045FA00F01FF800F045F800F06BF80B4943
:10238000C88B0B4900F0BCFA094800880F280CD014
:10239000012003F0E7FE0549C88B0F2100F024FB64
:1023A000002003F0DFFE01F049FF10BD7C0000209B
:1023B000C000002010B50E4908880E4900F0A0FAB0
:1023C0000B4948880C4900F09BFA094988880B4959
:1023D00000F096FA0748008800B2094908800648CC
:1023E000008800B248800548008800B2888010BD8F
:1023F0007C000020C0000020C2000020C40000209B
:10240000B400002010B50E49C8880E4900F078FAD3
:102410000B4908890C4900F073FA094948890B49AE
:1024200000F06EFA0748008800B2094908800648A3
:10243000008800B248800548008800B2888010BD3E
:102440007C000020C0000020C2000020C40000204A
:10245000BA00002010B548498889484900F050FA70
:102460004549C889464900F04BFA4349088A45491D
:1024700000F046FA4148008805F0FAFA044642495D
:1024800005F0ACF9414908603D48008805F0F0FAD4
:1024900004463F4905F0A2F93C49486039480088A4
:1024A00005F0E6FA3949886008460068394908604D
:1024B0003648406848603548806888602E49488AB8
:1024C0002E4900F01DFA2C49888A2D4900F018FA8F
:1024D0002949C88A2B4900F013FA2848008805F0DA
:1024E000C7FA0446284905F079F92B4908602448C1
:1024F000008805F0BDFA0446254905F06FF9264924
:1025000048602048008805F0B3FA234988600846EF
:102510000068224908602048406848601E4880687A
:1025200088601549088B154900F0EAF91249488B73
:10253000134900F0E5F91049888B124900F0E0F9E1
:102540000E48008805F094FA04460F4905F046F954
:10255000134908600A48008805F08AFA04460C49C5
:1025600005F03CF90E4948600648008805F080FAFD
:102570000B49886010BD00007C000020C0000020D6
:10258000C2000020C400002000002041E40400201C
:1025900000007A44D00400200C050020F80400203C
:1025A0002005002010B5012003F0DCFD0C4A128844
:1025B00091B20C4A108800F017FA094A528891B279
:1025C000084A508800F010FA054A928891B2054AEC
:1025D000908800F009FA002003F0C4FD10BD00004F
:1025E000B40000207C00002010B5012003F0BAFDEB
:1025F0000C4A128891B20C4AD08800F0F5F9094AC9
:10260000528891B2084A108900F0EEF9054A928882
:1026100091B2054A508900F0E7F9002003F0A2FDCD
:1026200010BD0000BA0000207C00002010B5012081
:1026300003F098FD43490868434905F061FA0446F0
:1026400005F0C2F9414908803E494868404905F013
:1026500057FA044605F0B8F93E49088039498868B8
:1026600005F0B2F93C4908803C4988893749098816
:1026700000F0BAF93949C8893649098800F0B4F937
:102680003649088A3449098800F0AEF934490868A7
:102690002D4905F035FA044605F096F92B490880D6
:1026A0002F4948682A4905F02BFA044605F08CF9B1
:1026B000284908802A49886805F086F92649088053
:1026C0002649488A2149098800F08EF92349888AD9
:1026D0002049098800F088F92049C88A1E490988DC
:1026E00000F082F91F490868174905F009FA044605
:1026F00005F06AF9154908801A494868144905F037
:10270000FFF9044605F060F9124908801549886808
:1027100005F05AF9104908801049088B0B490988BF
:1027200000F062F90D49488B0A49098800F05CF90C
:102730000A49888B0849098800F056F9002003F0FF
:1027400011FD10BDE404002000002041C000002065
:1027500000007A44C2000020C40000207C00002059
:102760000C05002020050020034606210622124801
:10277000018812480288A3B1012B1AD132B9A1F500
:102780006E40EE3800D170470120FCE739B9A2F560
:102790006E40EE3801D10120F5E70020F3E7AB20D1
:1027A000F1E709B90020EEE70AB90120EBE7AB2019
:1027B000E9E70020E7E70000000001080004010845
:1027C00010B504240B4800F099F90446042C01D0FC
:1027D000204610BD0021074800F0D0F90446042C23
:1027E00001D02046F5E7044800F088F90446204669
:1027F000EFE70000000001080004010810B503F035
:102800009FF8044600F0C0FF204610BD2DE9F84FA8
:10281000074689460425DFF8D8A0364800904FF0D7
:102820000008002400264FF0000B0020FFF79CFF5B
:102830008046B8F1010F05D1DFF8B8A02C48401C44
:1028400000900CE0B8F1000F06D1DFF8A4A00AF167
:10285000010A2848009002E0AB20BDE8F88F4EF650
:10286000EE61504600F08AF90546042D01D0284655
:10287000F3E700F089FF4946384600F071F8064654
:10288000042E01D03046E8E700241CE01A4830F856
:102890001400B84215D0184931F81400174900F057
:1028A0002FF88346BBF1010F0BD0134931F8140008
:1028B0001249098800F054F80646042E01D030462B
:1028C000CBE7601C84B2102CE0DB009800F016F916
:1028D0000546042D01D02846BFE70021504600F0F0
:1028E0004DF90546042D01D02846B6E72846B4E741
:1028F000FF030108000001087C0000207400002094
:102900002DE9F04706460F46002545F255584FF091
:102910000109114CA2460020FFF726FF0546AB2D0A
:1029200001D1BDE8F0870C4800EB852A0B48006810
:10293000841E0AE0B4F80080B04505D134F8020CDA
:1029400038804FF0000904E0241F0AF1020084429D
:10295000F0D800BF4846E4E70000010878000020F6
:102960002DE9F04104460F4604250026DFF86C806F
:102970000120FFF7F9FE0646AB2E01D1BDE8F0813C
:10298000701C174901EB802821E016480068006898
:10299000401C17D139461348006800F0EFF805468F
:1029A000042D01D02846E9E721460E480068801C26
:1029B00000F0E4F805460B480068001D094908606E
:1029C0002846DBE707480068001D064908600548FF
:1029D00000684045D9D38020D0E70000FF070108F8
:1029E000FEFF00087800002070B505460E46002462
:1029F00031462846FFF7B4FF0446802C04D1314607
:102A00002846FFF703FF0446204670BD10B54FF47B
:102A1000004000F015F850B14FF4004000F00AF803
:102A200001F004FA02480088401C0149088010BDEA
:102A30004400002001490860704700001404014070
:102A4000014600200022074B1B6803EA0102054BE8
:102A500014331B680B4202D00AB1012000E00020B1
:102A60007047000000040140002123498279002AB8
:102A70003AD00A46126803689A430B461A600A1D48
:102A8000126803689A430B1D1A60027911440A68A0
:102A900003681A430A60184A0832126803689A43A6
:102AA000154B08331A601A1D126803689A43124BBB
:102AB0000C331A604279102A0ED11A1F126803686B
:102AC0001A430D4B08331A601A1D126803681A4323
:102AD000094B0C331A600DE00749427911440A682A
:102AE00003681A430A6005E0027911440A68036822
:102AF0009A430A60704700000004014030B5044664
:102B000004254FF4302000F065F80546042D17D158
:102B10000C48006940F002000A4908610846446117
:102B2000006940F0400008614FF4302000F052F896
:102B300005460448006941F6FD71084001490861F5
:102B4000284630BD0020024004200B49C96811F01E
:102B5000010F01D001200EE00749C96811F0040FF0
:102B600001D0022007E00449C96811F0100F01D01C
:102B7000032000E0042070470020024070B50446A6
:102B80000D460426F00200F025F80646042E11D169
:102B90000948006940F00100074908612580F002FA
:102BA00000F018F806460448006941F6FE71084036
:102BB00001490861304670BD0020024002480349C7
:102BC0004860034848607047230167450020024081
:102BD000AB89EFCD00B502460423FFF7B5FF0346EE
:102BE00003E0FFF7B1FF0346521E012B01D1002A7B
:102BF000F7D102B90523184600BD000030B5002208
:102C00008B071C0F0F2303FA04F20B4B8C1053F8A5
:102C100024309343084C8D1044F8253023468C1003
:102C200053F824308C07240F00FA04F42343024C99
:102C30008D1044F8253030BD080001402DE9F041E9
:102C4000024600250026002000230024002791F8DA
:102C500003C00CF00F0591F803C01CF0100F03D057
:102C600091F802C04CEA050591F800C0BCF1000FD4
:102C700031D0146800202BE04FF0010C0CFA00F367
:102C8000B1F800C00CEA03069E4220D183004FF049
:102C90000F0C0CFA03F7BC4305FA03FC4CEA0404DE
:102CA00091F803C0BCF1280F06D14FF0010C0CFACB
:102CB00000FCC2F814C00AE091F803C0BCF1480F50
:102CC00005D14FF0010C0CFA00FCC2F810C0401CFA
:102CD0000828D1D31460B1F800C0BCF1FF0F34DD77
:102CE000546800202EE000F1080C4FF0010808FAAB
:102CF0000CF3B1F800C00CEA03069E4221D1830018
:102D00004FF00F0C0CFA03F7BC4305FA03FC4CEA36
:102D1000040491F803C0BCF1280F05D100F1080CA0
:102D200008FA0CF8C2F8148091F803C0BCF1480FFF
:102D300007D100F1080C4FF0010808FA0CF8C2F8AE
:102D40001080401C0828CED35460BDE8F0810000FC
:102D5000F0B50A46002300240021002500F00046BB
:102D6000B6F1004F02D11D4EF16901E01B4E7168B2
:102D7000C0F3034583B200F44016B6F5401F08D1F6
:102D800021F07061154E766826F07066134F7E60F4
:102D900012E000F48016B6F5801F06D1032606FA6D
:102DA00005F4A14341F0706106E0460D360103FAD7
:102DB00006F6B14341F0706122B1460D360103FAC7
:102DC00006F6314300F00046B6F1004F02D1034E43
:102DD000F16101E0014E7160F0BD000000000140B2
:102DE0002DE9F04F89B082463E480168006804F042
:102DF00087FE05903C480168006804F081FE03905E
:102E00003A480168006804F07BFE01903848016888
:102E1000006804F075FE0090019904F079FF0290BB
:102E2000039904F075FF0490059904F069FC83464A
:102E300004F03AFC06460F462A4801682A48006812
:102E400004F05EFE0490294801682948006804F0F7
:102E500057FE0390049904F053FC4FF08041059015
:102E600004F04EFE834604F01FFC32463B46CDE99B
:102E7000060103F0CBFB81F0004104464FF0005205
:102E80001C4B04F037F9804603F072FECAF80800C4
:102E9000144801681548006804F032FE0690124894
:102EA00001681348006804F02BFE0590069904F0B1
:102EB0002FFF4FF08041079004F022FE834604F07C
:102EC000F3FB064603F052F980464FF00052094BDF
:102ED00004F010F9044603F04BFECAF8040009B0F0
:102EE000BDE8F08F14000020100000200C0000202E
:102EF00008000020DCA54C4070B504460D46B4F92E
:102F0000000004F09DFD06460B4904F0F9FD286021
:102F1000B4F9020004F094FD0646074904F0F0FD00
:102F20006860B4F9040004F08BFD0646024904F021
:102F3000E7FDA86070BD000089A18B3A10B5364A44
:102F4000364B1B7832F91320354B1B689A1A344BD9
:102F50001A60344A314B1B7832F91320324B1B680C
:102F60009A1A314B1A60314A2C4B1B7832F91320D4
:102F70002F4B1B689A1A2E4B1A600288264B274C3F
:102F8000247823F814204388264A244C247822F8F5
:102F900014308288254B214C247823F814201E4AB3
:102FA0001E4B1B7832F913201D4B1B681A441C4B17
:102FB0001A601C4A194B1B7832F913201A4B1B68F4
:102FC0001A44194B1A60194A144B1B7832F9132012
:102FD000174B1B681A44164B1A60114A12681423C7
:102FE00092FBF3F212B20A800F4A126892FBF3F2DC
:102FF00012B24A800E4A126892FBF3F212B28A8031
:10300000064A1278521C054B1A701A461278142A76
:1030100001D100221A7010BD3C01002024000020C4
:1030200028000020640100202C0000208C010020DA
:103030003000002000BFFEE708B50121082001F0A4
:10304000D5F94FF44870ADF8000003208DF8020068
:1030500010208DF8030069461148FFF7EFFD4FF48B
:103060008050ADF8000003208DF8020014208DF888
:10307000030069460A48FFF7E1FD4FF40050ADF840
:10308000000003208DF8020014208DF8030069462B
:103090000348FFF7D3FD03A001F060F908BD00006D
:1030A000000C01400D0A20C4A3C4E2493243202091
:1030B000B3F5CABCBBAFCDEAB3C9A3A10000000001
:1030C00010B54FF480500F490860042000F03EF91D
:1030D00000BF4FF400500B490860042000F036F99F
:1030E00000BF4FF480500749091F0860042000F01A
:1030F0002DF900BF4FF4805002490860042000F011
:1031000025F910BD140C014010B54FF480500E4944
:103110000860042000F01AF94FF400500A49091F12
:103120000860042000F012F94FF480500649091F8E
:103130000860042000F00AF94FF48050024908604A
:10314000042000F003F910BD140C014070B50825EF
:103150000024A80217490860042000F0F7F819E0DD
:103160004FF480501349091D0860042000F0EEF868
:1031700000BF4FF480500F490860042000F0E6F8CB
:103180006006040E0B480838006810F4005F01D098
:1031900044F001042800A5F10101CDB2E0D14FF4C3
:1031A00080500449091D0860042000F0CFF8204633
:1031B00070BD0000100C014010B54FF480501C4948
:1031C0000860042000F0C2F84FF400501849091FAD
:1031D0000860042000F0BAF84FF480501449091F29
:1031E0000860042000F0B2F811480C38006808B9F3
:1031F000012000E0002010F4005F01D0002010BD8D
:103200004FF400500A490860042000F09FF8084875
:103210000C38006810F4005F01D00020EFE74FF495
:10322000005003490860042000F090F80120E6E710
:10323000140C014010B54FF480500E490860042072
:1032400000F084F84FF400500A490860042000F0B0
:103250007DF84FF480500749091F0860042000F0F2
:1032600075F84FF400500349091F0860042000F06E
:103270006DF810BD140C014010B54FF48050164984
:103280000860042000F062F84FF400501249091F52
:103290000860042000F05AF84FF480500E49091FCE
:1032A0000860042000F052F80B480C38006810F455
:1032B000005F08D04FF4805007490860042000F0F8
:1032C00045F8002010BD4FF48050034908600420E9
:1032D00000F03CF80120F5E7140C014070B50446FD
:1032E000082523E04FF4805017490860042000F0BF
:1032F0002DF814F0800F08D04FF400501249091F28
:103300000860042000F022F806E04FF400500E4957
:103310000860042000F01AF86006040E4FF4805094
:103320000949091F0860042000F010F82800A5F1E1
:103330000101CDB2D6D14FF480500349086004207A
:1033400000F004F870BD0000140C014000E0401EC5
:103350000028FCD1704700002DE9FF4F8FB00646D2
:1033600017461C46DDE91C89F94800680990F948B0
:103370000568F94800680890F848006807904946D1
:10338000484604F0BDFB41460590404604F0B8FBBA
:1033900021460390204604F0B3FB0290039904F009
:1033A000AFF90490059904F0ABF9069003F0C4FA64
:1033B0000E9020460E9904F0A3FB044640460E9959
:1033C00004F09EFB804648460E9904F099FB814626
:1033D000E1480168DE48006804F092FB0590DF4890
:1033E0000168DC48006804F08BFB0490059904F048
:1033F0008FFC4FF08041069004F082FB0D90D7487F
:103400000168D548006804F07BFB0590D14801684D
:10341000CF48006804F074FB0490059904F070F93B
:103420004FF08041069004F06BFB0C90CB48016894
:10343000006804F065FB0690C7480168006804F066
:103440005FFB0490C3480168006804F059FB0290D8
:10345000BF480168006804F053FB0190029904F032
:1034600057FC0390049904F053FC0590069904F06E
:1034700047F90B9048460C9904F042FB06904046F1
:103480000B9904F03DFB0590069904F041FC82463F
:1034900020460B9904F034FB069048460D9904F041
:1034A0002FFB0590069904F033FC834640460D99A6
:1034B00004F026FB069020460C9904F021FB0590B1
:1034C000069904F025FC0A90A549504604F018FB23
:1034D0000690A4480168069804F012F9A149086012
:1034E0009F49584604F00CFB06909F4801680698D7
:1034F00004F006F99C49086099490A9804F000FB19
:1035000006909A480168069804F0FAF8974908600E
:1035100051464FF07E5004F0F3FA3146059004F026
:10352000EFF806908F480168069804F0E9F806461F
:1035300059464FF07E5004F0E3FA0590109904F0DC
:10354000DFF8069088480168069804F0D9F81090D2
:103550004FF07E500A9904F0D3FA3946059004F0F2
:10356000CFF8069081480168069804F0C9F807462C
:103570003946079804F0C4FA04901099089804F0AA
:10358000BFFA029085F000403146009004F0B8FA8E
:103590000190029904F0BCFB0390049904F0B8FB7D
:1035A0007349059004F0ACFA0690099904F0A8F864
:1035B000674908601099079804F0A2FA3946049008
:1035C000089804F09DFA02903046099904F098FAA0
:1035D0000190029904F094F80390049904F098FB88
:1035E0006349059004F08CFA2946069004F088F8A7
:1035F000584908603046079904F082FA3946049029
:10360000284604F07DFA02901099099804F078FA9F
:103610000190029904F07CFB0390049904F070F887
:103620005349059004F06CFA0690089904F068F884
:10363000494908603046089904F062FA0490284627
:10364000109904F05DFA39460290099804F058FA8E
:103650000190029904F054F80390049904F058FB87
:103660004349059004F04CFA0690079904F048F895
:103670003A49086008460168006804F041FA05907C
:1036800035480168006804F03BFA0390314801684E
:10369000006804F035FA01902D480168006804F0D4
:1036A0002FFA0090019904F02BF80290039904F08E
:1036B00027F80490059904F023F8069003F03CF9EC
:1036C0000E9023480E99006804F01AFA2049086009
:1036D00020480E99006804F013FA1E4908601E483D
:1036E0000E99006804F00CFA1B4908601B480E99FB
:1036F000006804F005FA194908601E49B1F9040090
:1037000004F09EF91C49049004F0FAF9144905905C
:1037100004F0F6F9069019480168069803F0F0FFE6
:10372000164908600868164904F0B6FA03D8154827
:103730001249086008E011490868124904F0ACF920
:1037400002D80F480D49086013B0BDE8F08F0000A3
:10375000080000200C0000201000002014000020B1
:103760006F12833A180000201C0000202000002067
:103770006F12033AAE000020F1FF793DC40400202F
:1037800000003443000034C370B504260024012037
:10379000FEF7EAFF0446AB2C06D1124800EB84206A
:1037A00011490860AB2070BD0E4800EB84200E4923
:1037B0000860601C0B49891E01EB80250CE00A485B
:1037C00000680068401C02D104263046EBE706483A
:1037D0000068001D0449086003480068A842EED351
:1037E0008020E0E7000001087800002010B5752077
:1037F00001F050F9682801D0002010BD17A000F09A
:10380000ADFD00216B2001F06BF944F62060FFF75D
:103810009DFD0021192001F063F944F62060FFF7B7
:1038200095FD00211A2001F05BF944F62060FFF7B6
:103830008DFD18211B2001F053F944F62060FFF79D
:1038400085FD1F211C2001F04BF944F62060FFF795
:103850007DFD07A000F082FD0120CEE70D0A204D7E
:103860005055363035302020D5FDB3A3A3A100003C
:103870000D0A204D5055363035302020B3F5CABCE6
:10388000BBAFCDEAB3C9A3A10000000000B540F270
:10389000CF700E4908806420FEF73BFD00200B49E5
:1038A00008806420FEF735FD40F2CF70074908809C
:1038B0006420FEF72EFD0020044908806420FEF7F6
:1038C00028FD03480349086000BD0000340800409B
:1038D000E4CB96406400002008B50121082000F0E8
:1038E00085FD0120ADF8000003208DF802001020B6
:1038F0008DF8030069460B48FFF7A0F94020ADF8AA
:10390000000003208DF8020018208DF8030069469E
:103910000448FFF793F901F05DFD03A000F01EFDE0
:1039200008BD0000000C01400D0A20BAF4CEFCB521
:10393000C6B3F5CABCBBAFCDEAB3C9A3A1000000B2
:1039400010B5002415E001201F49086000201F4920
:103950000880C820FEF7DDFC40F2CF701B490880CC
:1039600001201949091F0860C820FEF7D2FC601C1D
:10397000C4B2032CE7DB002415E0012012490860E3
:10398000002012490880C820FEF7C3FC40F2CF7027
:103990000E49088001200C49091F0860C820FEF765
:1039A000B8FC601CC4B2032CE7DB01200649091FE8
:1039B0000860002005490880C820FEF7AAFC0448DA
:1039C0000449086010BD0000140C01403408004098
:1039D000E4CB96406400002010B525484078244987
:1039E000097840EA012023490988401A00B2224997
:1039F00008801F48C0781E49897840EA01201D4987
:103A00004988401A00B21C49488019484079184931
:103A1000097940EA012017498988401A00B21649FD
:103A200088801348407A1249097A40EA01201349F4
:103A30000988401A00B2124908800D48C07A0C4922
:103A4000897A40EA01200D494988401A00B20C49A0
:103A500048800748407B0649097B40EA0120074926
:103A60008988401A00B20649888000F00BF810BD22
:103A700048050020B40000209C000020BA0000206F
:103A8000A200002010B55F48007800285AD05E4898
:103A9000007870B900205D490880488088805C49C2
:103AA00008605C4908605C4908600120564908705C
:103AB00010BD55480078401C534908705748B0F96C
:103AC0000000534909680844514908605348B0F957
:103AD00002005049096808444E4908604F48B0F94F
:103AE00004004D49096808444B490860464800787D
:103AF000FB2827D144480078401E434908704448B9
:103B00000068097890FBF1F000B240490880414814
:103B100000683D49097890FBF1F000B23B494880CC
:103B20003D4800683849097890FBF1F0A0F5006045
:103B300000B2364988800020334908703149087046
:103B4000FEF730FD36480078002858D03548007818
:103B500070B9002034490880488088803349086063
:103B6000334908603349086001202E4908709FE7F7
:103B70002C480078401C2B4908702F48B0F90000F1
:103B80002A4909680844294908602B48B0F902000D
:103B9000274909680844264908602748B0F9040005
:103BA000244909680844234908601E480078FB2816
:103BB00025D11C480078401E1A4908701B4800682F
:103BC000097890FBF1F000B21749088018480068A6
:103BD0001449097890FBF1F000B213494880154868
:103BE00000681049097890FBF1F000B20E49888016
:103BF00000200C4908700A490870FEF7F5FC00BF68
:103C000056E70000D1000020E4000020B4000020AE
:103C1000D8000020DC000020E00000209C000020F4
:103C2000D0000020F4000020BA000020E8000020AE
:103C3000EC000020F0000020A200002010B50E24AF
:103C4000FFF7BAFA08B9002010BDD020FFF746FBF5
:103C5000FFF712FB18B9FFF7EDFA0020F4E73B205D
:103C6000FFF73CFBFFF708FBFFF7A6FAD120FFF7B1
:103C700035FBFFF701FB07E0FFF768FAC4F10D0120
:103C8000084A5054FFF71CFA601EC0B20400F3D17A
:103C9000FFF75CFA03494873FFF736FAFFF7CAFAF1
:103CA0000120D1E74805002010B53B2000F0F2FECE
:103CB0001C4908703C2000F0EDFE1A4948703D2078
:103CC00000F0E8FE174988703E2000F0E3FE154939
:103CD000C8703F2000F0DEFE12490871402000F05D
:103CE000D9FE10494871432000F0D4FE0D490872F6
:103CF000442000F0CFFE0B494872452000F0CAFE78
:103D000008498872462000F0C5FE0649C87247205F
:103D100000F0C0FE03490873482000F0BBFE0149D3
:103D2000487310BD4805002000BFFEE708B501211B
:103D3000042000F05BFB0F20ADF8000003208DF89D
:103D4000020018208DF8030069460448FEF776FF4C
:103D500001F0F0FA02A000F001FB08BD00080140EC
:103D60000D0A2050574D202020202020B3F5CABC3A
:103D7000BBAFCDEAB3C9A3A10000000030B54FF03E
:103D80008045A8862987AA87014D2B8030BD000079
:103D9000400000407047000010B50448C078401D46
:103DA000C1B20248FCF756FD10BD000056050020C8
:103DB0001CB505221049302000F022F90522694681
:103DC000102000F0D3F8002408E01DF804000A4990
:103DD000095D884200D003E0601CC4B2052CF4DB0E
:103DE00000BF052C03D105A000F0B8FA02E009A03D
:103DF00000F0B4FA1CBD0000F60000200D0A204EB1
:103E0000524632344C3031B3F5CABCBBAFB3C9B93A
:103E1000A6A3A1000D0A204E524632344C3031B3D5
:103E2000F5CABCBBAFCAA7B0DCA3A10070B5072020
:103E300000F0BCF8044614F0400F13D0602000F0EE
:103E4000B5F80546202D08D12A460F49612000F01B
:103E50008DF800200D49088003E0FF21E22000F0EA
:103E6000EDF800BF14F0100F06D014F0010F03D0CE
:103E7000FF21E12000F0E2F800F054F8214627206D
:103E800000F0DCF870BD00005605002000010020A5
:103E900070B505460C464FF480401F490860FF216D
:103EA000E12000F0CBF8FF21E22000F0C7F8052266
:103EB0001A49302000F0A4F8052219492A2000F000
:103EC0009FF80121212000F0B9F80121222000F003
:103ED000B5F81A21242000F0B1F82946252000F079
:103EE000ADF82021312000F0A9F80F21262000F0A4
:103EF000A5F8012C04D10E21202000F09FF805E048
:103F0000022C03D10F21202000F098F84FF48040BC
:103F10000149091F086070BD140C0140F600002023
:103F2000FB00002010B54FF48040064908600F21C7
:103F3000202000F083F84FF480400249091F0860F8
:103F400010BD0000140C014010B54FF4804006492C
:103F500008600E21202000F071F84FF480400249E3
:103F6000091F086010BD0000140C01402DE9F0414C
:103F700007460D46164610200B490860384600F0EB
:103F8000F5FC8046002405E0002000F0EFFC2855F9
:103F9000601CC4B2B442F7DB10200349091F08605B
:103FA0004046BDE8F08100001408014070B50446A9
:103FB000102007490860204600F0D8FC002000F0DF
:103FC000D5FC054610200249091F0860284670BD2F
:103FD0001408014070B504460D46FFF7B5FF4FF4D5
:103FE0008040064908602A462146A02000F008F8D3
:103FF0004FF480400149091F086070BD140C014056
:104000002DE9F04107460D46164610200A49086082
:10401000384600F0ABFC8046002404E0285D00F048
:10402000A5FC601CC4B2B442F8DB10200249091F91
:1040300008604046BDE8F0811408014070B50546AF
:104040000C46102007490860284600F08FFC064601
:10405000204600F08BFC10200249091F0860304602
:1040600070BD00001408014070B5002100230F222C
:10407000C4780CB3164C246804F4E064C4F5E0641E
:10408000210AC1F10403CA40447804FA03F1847898
:104090001440214309010F4C0678A155047804F01F
:1040A0001F050124AC4005786D114FF0E02606EBAA
:1040B0008505C5F8004109E0047804F01F050124D6
:1040C000AC40054D0678761145F8264070BD0000DD
:1040D0000CED00E000E400E080E100E00249014373
:1040E000024A1160704700000000FA050CED00E084
:1040F00010B529480088401C2749088008460088D8
:10410000012805D125490860FFF746FE00F04BFC69
:1041100021480088642190FBF1F201FB120008B9EC
:10412000FFF784FE1C480088B0F57A7F18DB012079
:104130001A49091F08601A4800880A381849088077
:104140000846008840F21451884206DC01201549D7
:10415000087040F2F2301249088001200E490880B0
:104160001148008818B11148FDF77CFA13E00D489A
:10417000007868B90A48807B10F0020F04D040F242
:10418000CF700B49088006E000200949088002E052
:104190000848FDF767FA10BD00010020140C01402B
:1041A000B004002048000020C60000200AD7233CAD
:1041B00034080040A69BC43A08B54FF4A060FFF74E
:1041C0008DFF1D208DF8000000208DF801000120DA
:1041D0008DF802008DF803006846FFF745FF2820A0
:1041E0008DF8000001208DF8010000208DF80200FC
:1041F00001208DF803006846FFF736FF25208DF873
:10420000000002208DF8010000208DF8020001203E
:104210008DF803006846FFF727FF27208DF8000080
:1042200002208DF8010000208DF8020001208DF899
:1042300003006846FFF718FF08BD000010B540F204
:10424000DC502B498880C8804880088008814881DC
:1042500088814FF080402749086027490860274936
:10426000C8602749234841602348416023480161D1
:1042700000212048816020488160204841614FF042
:10428000804020490860204908601C49886100215D
:104290001C4841601C4841601848C1611948816050
:1042A00019488160154801624FF082401749086043
:1042B0001249486216491548416010488162002140
:1042C000124881600D48C1624FF07E50114908606C
:1042D0000A4908630E490F484160084841630E4986
:1042E0000C48816005488163FEF7A0F910BD00000D
:1042F000B0040020D0040020E40400204402002088
:104300000AD7233DF80400200C05002020050020DA
:10431000CDCCCC3D340500200000F04170470000BA
:1043200010B504460A4801780078401C084A10700D
:10433000084844540848008810F0800F06D1012234
:1043400040F2277104480C3801F078F910BD0000E4
:1043500069000020280300200C38014070B5054694
:104360002C4603E02078FFF7DBFF641C2078002850
:10437000F8D170BD01460020034A506820F4404047
:1043800008435060704700000010024029B1064AFF
:1043900052690243044B5A6104E0034A5269824362
:1043A000014B5A61704700000010024029B1064AD3
:1043B000D2690243044BDA6104E0034AD2698243C2
:1043C000014BDA61704700000010024029B1064A33
:1043D00012690243044B1A6104E0034A12698243E2
:1043E000014B1A61704700000010024029B1064AD3
:1043F00092690243044B9A6104E0034A9269824342
:10440000014B9A61704700000010024029B1064A32
:10441000D2680243044BDA6004E0034AD268824364
:10442000014BDA60704700000010024030B50021F7
:104430000022002400232D4D6D6805F00C0121B1F0
:10444000042905D0082923D105E0294D056022E083
:10445000284D05601FE0254D6D6805F47012234D51
:104460006D6805F48034022505EB92421CB9224D9B
:10447000554305600BE01D4D6D6815F4003F03D0FA
:104480001B4D5543056002E01A4D5543056002E09F
:10449000174D056000BF00BF144D6D6805F0F001B9
:1044A0000909164D6B5C0568DD4045600F4D6D6870
:1044B00005F4E061090A114D6B5C4568DD408560DB
:1044C0000A4D6D6805F46051C90A0C4D6B5C456876
:1044D000DD40C560054D6D6805F44041890B084D10
:1044E0006B5CC568B5FBF3F5056130BD001002409B
:1044F00000127A000024F40000093D00270100208A
:104500003701002010B569480078012840D168487B
:104510000088B0F5966F14DA65484088B0F5966F5C
:104520000FDA64480078401C624908700846007839
:10453000642809DD002008705C490870FFF7A6F9BF
:1045400002E000205B49087059480088B0F5966F7A
:104550001BDA57488088B0F5966F16DA564800780F
:10456000401C5549087008460078642810DD4F4803
:10457000007868B100200870FDF7E6FEFDF7D8FE70
:10458000FDF7EEFEFFF782F902E000204A490870CD
:1045900046480078E8B946480088B0F5966F15DAC5
:1045A00043484088B0F5E16F10DD44480078401C76
:1045B000424908700846007864280ADD0020087027
:1045C00001203A490870FFF761F902E000203B49F9
:1045D00008703B48007800BB3548C088B0F5966F3E
:1045E00018DA33488088B0F5966F13DA35480078CA
:1045F000401C344908700846007864280DDD2B48BB
:10460000007850B10020087001202D490870FFF794
:104610003DF902E000202B49087029480078012864
:1046200042D122480078F8B92148408840F2C6714A
:10463000884216DD24480078401C2349087008464B
:1046400000780A2810DD1948007868B90020087041
:1046500001201649087000201C49C860FFF716F9B0
:1046600002E000201849087011488088B0F5966F64
:1046700017DA0F48C088B0F5E16F12DD14480078F2
:10468000401C134908700846007864280CDD074870
:10469000007848B10020087009490870FFF7F6F863
:1046A00002E000200A49087010BD00004800002008
:1046B000B00400204E000020500000204F000020D9
:1046C0004A00002052000020510000203405002044
:1046D000530000200188B1F57A7F02DC4FF47A7133
:1046E00000E0018801800188B1F5FA6F02DB4FF428
:1046F000FA6100E0018801808188B1F57A7F02DCEF
:104700004FF47A7100E0818881808188B1F5FA6F79
:1047100002DB4FF4FA6100E081888180C188B1F545
:104720007A7F02DC4FF47A7100E0C188C180C188D1
:10473000B1F5FA6F02DB4FF4FA6100E0C188C18085
:104740004188B1F57A7F02DC4FF47A7100E041884C
:1047500041804188B1F5FA6F02DB4FF4FA6100E065
:10476000418841800189B1F57A7F02DC4FF47A718A
:1047700000E0018901810189B1F5FA6F02DB4FF494
:10478000FA6100E0018901814189B1F57A7F02DC9B
:104790004FF47A7100E0418941814189B1F5FA6FA6
:1047A00002DB4FF4FA6100E0418941818189B1F572
:1047B0007A7F02DC4FF47A7100E0818981818189FE
:1047C000B1F5FA6F02DB4FF4FA6100E08189818173
:1047D0007047000000B589B001210920FFF706FEEF
:1047E00001210803FFF702FE01213B48FEF7B0FA62
:1047F000E020ADF80C0001208DF80E0018208DF897
:104800000F0003A93548FEF719FA4FF48040ADF8C0
:104810000C0001208DF80E0010208DF80F0003A968
:104820002F48FEF70BFA1020ADF80C0001208DF890
:104830000E0010208DF80F0003A92848FEF7FEF99E
:104840004FF40040ADF80C0003208DF80E00482016
:104850008DF80F0003A92248FEF7F0F90F2101207F
:10486000FEF7CCF94FF40040019000208DF80800CD
:104870000C208DF8090001208DF80A0001A8FEF730
:10488000F3F810201549103108600020ADF8100031
:104890004FF48270ADF812000020ADF81400ADF8AE
:1048A0001600ADF818004815ADF81A001020ADF844
:1048B0001C000020ADF81E000720ADF8200004A960
:1048C000084800F035F80121064800F017F806A066
:1048D000FFF744FD09B000BD0002300000080140B0
:1048E000000C0140003001400D0A2053504931B303
:1048F000F5CABCBBAFCDEAB3C9A3A10021B1028800
:1049000042F04002028004E002884FF6BF731A4072
:10491000028070470246002013890B4201D001201B
:1049200000E0002070470146888970478181704708
:1049300010B50022028802F441520B884C882343B0
:104940008C882343CC8823430C8923434C892343FD
:104950008C892343CC8923431A430280838B4FF2F3
:10496000FF74234083830B8A038210BD10B5044675
:1049700000BF02210A48FFF7CDFF0028F9D02146E9
:104980000748FFF7D3FF00BF01210548FFF7C2FF2B
:104990000028F9D00248FFF7C6FFC0B210BD0000E2
:1049A00000300140704710B5FBF772FE10BD10B526
:1049B00000F002F810BD00000CB50020019000903E
:1049C0003248006840F480303049086000BF2F480A
:1049D000006800F4003000900198401C019000989D
:1049E00018B90198B0F5A06FF1D12848006810F40B
:1049F000003F02D00120009001E0002000900098CC
:104A0000012842D12248006840F010002049086087
:104A10000846006820F0030008600846006840F07F
:104A20000200086019484068184948600846406814
:104A300048600846406840F4806048600846406826
:104A400020F47C1048600846406840F4F810486044
:104A50000846006840F08070086000BF0B4800689E
:104A600010F0007FFAD00948406820F003000749A1
:104A700048600846406840F00200486000BF0348B4
:104A8000406800F00C000828F9D10CBD001002406D
:104A90000020024070B50446FEF78EFB08B90020E6
:104AA00070BDD020FEF71AFCFEF7E6FB18B9FEF742
:104AB000C1FB0020F4E72046FEF710FCFEF7DCFB0C
:104AC000FEF77AFBD120FEF709FCFEF7D5FBFEF7D7
:104AD0003DFB0546FEF718FBFEF7ACFB2846DFE77B
:104AE00070B505460C46FEF767FB08B9002070BD9F
:104AF000D020FEF7F3FBFEF7BFFB18B9FEF79AFBD9
:104B00000020F4E72846FEF7E9FBFEF7B5FB204658
:104B1000FEF7E4FBFEF7B0FBFEF78CFB0120E6E7B7
:104B200010B51348006840F00100114908600846BC
:104B30004068104908400E494860084600680E4920
:104B400008400B4908600846006820F4802008608F
:104B50000846406820F4FE0048604FF41F0088605B
:104B6000FFF725FF4FF000600449086010BD00000A
:104B7000001002400000FFF8FFFFF6FE08ED00E025
:104B800010B50B48008810F0010F0ED04FF6FE70E4
:104B9000074908800748007800B910BD064800683A
:104BA000401C0549086000F08FFB00BFF5E70000DE
:104BB00010040040400000206C00002021B1028859
:104BC00042F08002028004E002884FF67F731A40B0
:104BD00002807047CA430282704721B1028842F0C6
:104BE0000102028004E002884FF6FE731A40028040
:104BF0007047000010B504466848844208D101217E
:104C0000C014FFF703FC0021E014FFF7FFFBC4E032
:104C1000B4F1804F08D101210846FFF7D7FB0021EE
:104C20000120FFF7D3FBB8E05D48844208D10121A1
:104C30000220FFF7CBFB00210220FFF7C7FBACE00F
:104C40005848844208D101210420FFF7BFFB00210E
:104C50000420FFF7BBFBA0E05348844208D10121A8
:104C60000820FFF7B3FB00210820FFF7AFFB94E01B
:104C70004E48844208D101211020FFF7A7FB0021F4
:104C80001020FFF7A3FB88E04948844208D10121A6
:104C90002020FFF79BFB00212020FFF797FB7CE003
:104CA0004448844208D101214014FFF7AFFB0021A2
:104CB0006014FFF7ABFB70E03F48844209D101214B
:104CC000C804FFF7A3FB00214FF40020FFF79EFB71
:104CD00063E03A48844209D101210805FFF796FBB9
:104CE00000214FF48010FFF791FB56E034488442D6
:104CF00009D101214805FFF789FB00214FF400107D
:104D0000FFF784FB49E02F48844208D1012140206D
:104D1000FFF75CFB00214020FFF758FB3DE02A48ED
:104D2000844208D101218020FFF750FB0021802020
:104D3000FFF74CFB31E02548844208D10121801562
:104D4000FFF744FB0021A015FFF740FB25E02048BA
:104D5000844209D101210804FFF758FB00214FF4D8
:104D60008030FFF753FB18E01A48844209D1012133
:104D70004804FFF74BFB00214FF40030FFF746FBE0
:104D80000BE01548844208D101218804FFF73EFB5F
:104D900000214FF48020FFF739FB10BD002C0140AB
:104DA0000004004000080040000C004000100040DB
:104DB0000014004000340140004C0140005001400C
:104DC0000054014000180040001C0040002000403A
:104DD0000040014000440140004801401AB183896D
:104DE0000B43838102E083898B43838170470000FA
:104DF00070B5002400220023058C4FF6FE76354066
:104E00000584028C8388048B4FF68F752C40B51E69
:104E10002C400D882C43751E2A400D892A434D884D
:104E20002A43144DA8420BD0134DA84208D0134D6D
:104E3000A84205D0124DA84202D0124DA84213D16B
:104E40004FF6F7752A404D892A434FF6FB752A40E5
:104E50008D882A434FF6FF652B404FF6FF552B40B8
:104E60008D892B43CD892B4383800483CD88858610
:104E7000028470BD002C014000340140004001401C
:104E800000440140004801400A460021018B4FF6D2
:104E9000F7731940114301837047000070B5002477
:104EA00000220023058C4FF6EF7635400584028CF6
:104EB0008388048B48F6FF752C404FF6FF452C4045
:104EC0000D884FF6FF7606EA05252C434FF6DF7571
:104ED0002A400D8906EA05152A434D8806EA05157C
:104EE0002A43154DA84202D0144DA8421DD14FF6B9
:104EF0007F752A404D894FF6FF7606EA05152A434D
:104F00004FF6BF752A408D8806EA05152A434FF6ED
:104F1000FF352B404FF2FF752B408D8906EA850542
:104F20002B43CD8906EA85052B4383800483CD88F6
:104F30000587028470BD0000002C01400034014050
:104F40000A460021018B4FF2FF7319404FF6FF73A1
:104F500003EA0223194301837047000070B500245F
:104F600000220023058C4FF6FF6635400584028C35
:104F70008388848B4FF68F752C404FF6FC752C4040
:104F80000D882C434FF6FF552A400D894FF6FF76CA
:104F900006EA05252A434D8806EA05252A43154DCC
:104FA000A84202D0144DA8421DD14FF2FF752A40ED
:104FB0004D894FF6FF7606EA05252A434FF6FF3561
:104FC0002A408D8806EA05252A434EF6FF752B40B8
:104FD0004DF6FF752B408D8906EA05152B43CD89CB
:104FE00006EA05152B4383808483CD888587028458
:104FF00070BD0000002C0140003401400A46002131
:10500000818B4FF6F773194011438183704700007D
:1050100070B5002200230024058C4EF6FF76354043
:105020000584038C8488828B48F6FF752A404FF6EE
:10503000FF452A400D884FF6FF7606EA05252A43EC
:105040004DF6FF752B400D8906EA05352B434D883B
:1050500006EA05352B430B4DA84202D00A4DA84263
:1050600008D14BF6FF752C408D894FF6FF7606EA86
:1050700085152C4384808283CD88A0F8405003841A
:1050800070BD0000002C0140003401400A460021A0
:10509000818B4FF2FF7319404FF6FF7303EA02232F
:1050A0001943818370470000002202881D4B9842FB
:1050B0000ED01D4B98420BD0B0F1804F08D01B4B47
:1050C000984205D01A4B984202D01A4B984204D10C
:1050D0004FF68F731A404B881A43174B984207D0EC
:1050E000164B984204D04FF6FF431A40CB881A4320
:1050F00002808B8883850B8803850A4B98420BD0EE
:10510000094B984208D00E4B984205D00D4B98425F
:1051100002D00D4B984201D10B7A03860123838282
:1051200070470000002C01400034014000040040A2
:1051300000080040000C0040001000400014004037
:1051400000400140004401400048014010B51B48A8
:105150000078012830D11A480078012804DB0020AB
:105160001749087000F036F816480078022804DB6A
:1051700000201449087000F08FF8134800780428C4
:1051800004DB00201049087000F078F80F48007820
:10519000142804DB00200D49087000F08BF80C483F
:1051A0000088B0F57A7F04DB00200949088000F010
:1051B00055F800200149087010BD000004000020CF
:1051C0000000002001000020020000200300002059
:1051D000060000207CB5FEF731FD30B919480068A3
:1051E000401C18490860FEF75FFDFEF7F5FB164905
:1051F0001648FBF753F816491648FDF79FFE164967
:105200001348FDF779FE1049B1F9040002F018FCCB
:1052100004460D49B1F9020002F012FC05460A49A4
:10522000B1F9000002F00CFC06460B4BCDE900542E
:105230009A68596818683346FEF78EF8FEF758FFEB
:105240007CBD0000D4000020A80000209C000020AD
:10525000AE000020A20000209804002010B501F04C
:1052600095FA044800880449088000200149088014
:1052700010BD0000440000204200002010B504488A
:10528000FDF7AEFD03490248FCF74AFA10BD0000E5
:10529000C4040020B004002010B50348027803497C
:1052A0000348FCF735FB10BD48000020B004002087
:1052B0009804002010B50348007808B101F02AFBDB
:1052C00010BD00004A00002013480078401C12491D
:1052D000087012480078401C104908701048007887
:1052E000401C0F4908700F480078401C0D49087099
:1052F0000D480088401C0C4908800C4800780128A3
:1053000005D10B480078401C0949087002E00120D3
:1053100006490870704700000000002001000020CE
:1053200002000020030000200600002004000020EE
:105330000500002010B588B001210846FFF736F8B7
:10534000172440F2E730ADF81800ADF81440002003
:10535000ADF81A00ADF8160005A94FF08040FFF730
:10536000A3FE6020ADF804000120ADF80600002087
:10537000ADF80A00ADF80C0001A94FF08040FFF72E
:1053800037FD0821C806FFF77FFD01A94FF08040D7
:10539000FFF784FD0821C806FFF7D2FD01A94FF0F1
:1053A0008040FFF7DBFD0821C806FFF727FE01A9B3
:1053B0004FF08040FFF72CFE0821C806FFF766FE7D
:1053C00001218807FFF7FAFB01218807FFF705FC99
:1053D00008B010BD00B587B001210420FEF7E6FF3C
:1053E00040F2CF70ADF814004720ADF81000002057
:1053F000ADF81600ADF8120004A91248FFF754FEEC
:105400006020ADF800000120ADF802000020ADF8EA
:105410000600ADF8080069460A48FFF7E9FC0821D4
:105420000848FFF731FD01210648FFF7C7FB0121BE
:105430000448FFF7D2FB002002493431088007B04E
:1054400000BD0000000800403EB5044601210220D6
:10545000FEF7ACFF124804801248FFF7CBFB12485E
:1054600090FBF4F080B2ADF804004720ADF80000E6
:105470000020ADF80600ADF8020069460948FFF7C4
:1054800013FE01210748FFF7A5FB0122114605483D
:10549000FFF7A4FC01210348FFF79FFB3EBD00007E
:1054A000700000200004004040420F0010B50821A9
:1054B0001C4800F0B6F810B11A4800F051F919482C
:1054C000008810F0400F1ED016480C30008810F0F5
:1054D000800F18D0144801780078401C124A1070D0
:1054E0001248405C0F49091D088010460078104999
:1054F0000978884207D10B480C30008820F08000E2
:1055000008490C3108800748008810F0200F07D0A8
:105510000448001D0088C4B2204601F039FA00BFDB
:1055200010BD000000380140680000202803002062
:105530006900002010B508211C4800F072F810B175
:105540001A4800F00DF91948008810F0400F1ED0DD
:1055500016480C30008810F0800F18D014480178DD
:105560000078401C124A10701248405C0F49091D17
:1055700008801046007810490978884207D10B4806
:105580000C30008820F0800008490C310880074862
:10559000008810F0200F07D00448001D0088C4B216
:1055A000204601F0F5F900BF10BD000000480040A2
:1055B00025010020960500202601002010B5044694
:1055C0000A4801780078401C084A10700848445482
:1055D0000848008810F0800F06D1012240F22771A0
:1055E00004480C3800F02AF810BD00002601002005
:1055F000960500200C48004001F40072B2F5007FCF
:1056000000D100BFCA430280704721B1828942F4B1
:105610000052828104E082894DF6FF731A40828134
:10562000704702460020B1F5007F00D100BF13880B
:105630000B4201D0012000E000207047F0B5034686
:105640000024002600250020A1F510676A3F00D144
:1056500000BF1846C1F3421401F01F06012707FAE4
:1056600006F5012C01D10C3004E0022C01D11030E0
:1056700000E014301AB107682F43076002E00768A2
:10568000AF430760F0BD00002DE9F04786B0054646
:105690000E460024A24600BFA1460027B08900B1F3
:1056A00000BF2F462C8A4CF6FF700440F08804435C
:1056B0002C82AC894EF6F3100440B088318908433F
:1056C000718908430443AC81AC8A4FF6FF40044023
:1056D000B0890443AC8201A8FEF7A8FE1F488742A8
:1056E00002D1DDF810A001E0DDF80CA0A88910F4CB
:1056F000004F08D00AEBCA0000EB0A1031684900DD
:10570000B0FBF1F807E00AEBCA0000EB0A103168C1
:105710008900B0FBF1F86420B8FBF0F00401200927
:10572000642101FB1089A88910F4004F08D03220B1
:1057300000EBC900B0FBF1F000F00700044308E003
:10574000322000EB09106421B0FBF1F000F00F00F3
:1057500004432C8106B0BDE8F0870000003801400A
:1057600001468888C0F308007047000070B5044601
:105770000D4619481949097830F911001849096886
:10578000081A17490860206802F01EF900B2124991
:10579000124A127821F8120008461049097830F9A7
:1057A00011000F49096808440D490860084600685F
:1057B000052190FBF1F6304602F042F928600748D7
:1057C0000078401C0549087008460078052801D17A
:1057D0000020087070BD0000B401002034000020DB
:1057E0003800002010B586B0044601210520FEF7E0
:1057F000FDFD01218803FEF7F9FD4FF40070ADF8BF
:10580000140018208DF8170003208DF8160005A944
:105810001848FDF713FA4FF48060ADF81400042027
:105820008DF8170003208DF8160005A91148FDF723
:1058300005FA01940020ADF80800ADF80A00ADF8B3
:105840000C00ADF810000C20ADF80E0001A90A48BC
:10585000FFF71AFF012240F225510748FFF7EEFE3D
:1058600001210548FFF7D1FE40210348FFF7C4FEA0
:1058700006B010BD000801400038014010B586B0E8
:10588000044601210920FEF7B1FD01218804FEF73D
:105890008DFD4FF48060ADF8140018208DF81700CE
:1058A00003208DF8160005A91848FDF7C7F94FF435
:1058B0000060ADF8140004208DF8170003208DF867
:1058C000160005A91148FDF7B9F901940020ADF8BB
:1058D0000800ADF80A00ADF80C00ADF810000C207F
:1058E000ADF80E0001A90A48FFF7CEFE012240F2F2
:1058F00025510748FFF7A2FE01210548FFF785FE65
:1059000040210348FFF778FE06B010BD000C0140AF
:105910000048004000BFFEE7490050EAC12018BF20
:1059200004204A0D18BF40F0010040F2FF72B2EBB4
:10593000515F08BF40F00200012808BF05207047F2
:105940002DE9F0474FF0060A062600250027A84655
:105950004FF0FF397448B0F800A0744806885FEA39
:105960000A0074D0A0F56E40EE382AD0A0F5885019
:1059700011386DD146B96C48FDF7C0F80446042CC7
:105980001ED02046BDE8F087A6F56E40EE3810D157
:105990006548FDF7B3F80446042C01D02046F1E732
:1059A00000216248FDF7EAF80446042C08D020469E
:1059B000E8E7FCF705FF0446042C01D02046E1E7A8
:1059C000AEE07EBB002522E05748C088584931F838
:1059D0001510884201D10FFA85F94D4515D054496B
:1059E00031F815005349FCF78BFF8046B8F1010FE1
:1059F0000BD04F4931F815004E490988FCF7B0FF2C
:105A00000746042F01D03846BCE7681C85B2102D2C
:105A1000DADB00214448FDF7B1F80446042C02D03B
:105A20002046AFE707E04148FDF768F80446042C3C
:105A30001FD02046A6E7A6F57F40FF3812D13B488D
:105A4000FDF75CF80446042C03D020469AE711E0E9
:105A50005EE000213448FDF791F80446042C08D09C
:105A600020468FE7FCF7ACFE0446042C01D020460C
:105A700088E755E036B9FCF7A3FE0446042C46D06F
:105A800020467FE7A6F57F40FF3807D12748FDF77E
:105A900035F80446042C3AD0204673E7002523E06D
:105AA0002248801D0088224931F81510884201D112
:105AB0000FFA85F94D4515D01D4931F815001D49DE
:105AC000FCF71EFF8046B8F1010F0BD0184931F8E2
:105AD000150018490988FCF743FF0746042F01D039
